{
  "_format": "hh-sol-artifact-1",
  "contractName": "DecodeObjTest",
  "sourceName": "contracts/DecodeObjTest.sol",
  "abi": [
    {
      "anonymous": false,
      "inputs": [
        {
          "indexed": true,
          "internalType": "address",
          "name": "owner",
          "type": "address"
        },
        {
          "indexed": true,
          "internalType": "address",
          "name": "approved",
          "type": "address"
        },
        {
          "indexed": true,
          "internalType": "uint256",
          "name": "tokenId",
          "type": "uint256"
        }
      ],
      "name": "Approval",
      "type": "event"
    },
    {
      "anonymous": false,
      "inputs": [
        {
          "indexed": true,
          "internalType": "address",
          "name": "owner",
          "type": "address"
        },
        {
          "indexed": true,
          "internalType": "address",
          "name": "operator",
          "type": "address"
        },
        {
          "indexed": false,
          "internalType": "bool",
          "name": "approved",
          "type": "bool"
        }
      ],
      "name": "ApprovalForAll",
      "type": "event"
    },
    {
      "anonymous": false,
      "inputs": [
        {
          "indexed": true,
          "internalType": "address",
          "name": "from",
          "type": "address"
        },
        {
          "indexed": true,
          "internalType": "address",
          "name": "to",
          "type": "address"
        },
        {
          "indexed": true,
          "internalType": "uint256",
          "name": "tokenId",
          "type": "uint256"
        }
      ],
      "name": "Transfer",
      "type": "event"
    },
    {
      "inputs": [
        {
          "internalType": "uint256",
          "name": "_divNumHorizontal",
          "type": "uint256"
        },
        {
          "internalType": "uint256",
          "name": "_divNumVertical",
          "type": "uint256"
        },
        {
          "internalType": "string[]",
          "name": "_baseVVector",
          "type": "string[]"
        },
        {
          "internalType": "string[]",
          "name": "_baseVnVector",
          "type": "string[]"
        }
      ],
      "name": "addVectorData",
      "outputs": [],
      "stateMutability": "nonpayable",
      "type": "function"
    },
    {
      "inputs": [
        {
          "internalType": "address",
          "name": "to",
          "type": "address"
        },
        {
          "internalType": "uint256",
          "name": "tokenId",
          "type": "uint256"
        }
      ],
      "name": "approve",
      "outputs": [],
      "stateMutability": "nonpayable",
      "type": "function"
    },
    {
      "inputs": [
        {
          "internalType": "address",
          "name": "owner",
          "type": "address"
        }
      ],
      "name": "balanceOf",
      "outputs": [
        {
          "internalType": "uint256",
          "name": "",
          "type": "uint256"
        }
      ],
      "stateMutability": "view",
      "type": "function"
    },
    {
      "inputs": [
        {
          "internalType": "uint256",
          "name": "_divNumHorizontal",
          "type": "uint256"
        },
        {
          "internalType": "uint256",
          "name": "_divNum",
          "type": "uint256"
        }
      ],
      "name": "createF",
      "outputs": [
        {
          "internalType": "string",
          "name": "",
          "type": "string"
        }
      ],
      "stateMutability": "pure",
      "type": "function"
    },
    {
      "inputs": [
        {
          "internalType": "uint256",
          "name": "index",
          "type": "uint256"
        },
        {
          "internalType": "string[]",
          "name": "vectorBaseArray",
          "type": "string[]"
        },
        {
          "internalType": "string",
          "name": "vector",
          "type": "string"
        },
        {
          "internalType": "string",
          "name": "vectorZInversion",
          "type": "string"
        }
      ],
      "name": "createVVector",
      "outputs": [
        {
          "internalType": "string",
          "name": "",
          "type": "string"
        },
        {
          "internalType": "string",
          "name": "",
          "type": "string"
        }
      ],
      "stateMutability": "pure",
      "type": "function"
    },
    {
      "inputs": [
        {
          "internalType": "string",
          "name": "_vectorKind",
          "type": "string"
        },
        {
          "internalType": "uint256",
          "name": "divNumVertical",
          "type": "uint256"
        },
        {
          "internalType": "string[]",
          "name": "baseVVector",
          "type": "string[]"
        }
      ],
      "name": "createVector",
      "outputs": [
        {
          "internalType": "string",
          "name": "",
          "type": "string"
        }
      ],
      "stateMutability": "pure",
      "type": "function"
    },
    {
      "inputs": [
        {
          "internalType": "uint256",
          "name": "index",
          "type": "uint256"
        },
        {
          "internalType": "string[]",
          "name": "vectorBaseArray",
          "type": "string[]"
        },
        {
          "internalType": "string",
          "name": "vector",
          "type": "string"
        },
        {
          "internalType": "string",
          "name": "vectorZInversion",
          "type": "string"
        }
      ],
      "name": "createVnVector",
      "outputs": [
        {
          "internalType": "string",
          "name": "",
          "type": "string"
        },
        {
          "internalType": "string",
          "name": "",
          "type": "string"
        }
      ],
      "stateMutability": "pure",
      "type": "function"
    },
    {
      "inputs": [],
      "name": "getAllGhost",
      "outputs": [
        {
          "components": [
            {
              "internalType": "string",
              "name": "name",
              "type": "string"
            },
            {
              "internalType": "string",
              "name": "material",
              "type": "string"
            },
            {
              "internalType": "string",
              "name": "description",
              "type": "string"
            },
            {
              "internalType": "uint256",
              "name": "ghostId",
              "type": "uint256"
            },
            {
              "internalType": "uint256",
              "name": "vectorDataIndex",
              "type": "uint256"
            }
          ],
          "internalType": "struct DecodeObjTest.Ghost[]",
          "name": "",
          "type": "tuple[]"
        }
      ],
      "stateMutability": "view",
      "type": "function"
    },
    {
      "inputs": [
        {
          "internalType": "uint256",
          "name": "tokenId",
          "type": "uint256"
        }
      ],
      "name": "getApproved",
      "outputs": [
        {
          "internalType": "address",
          "name": "",
          "type": "address"
        }
      ],
      "stateMutability": "view",
      "type": "function"
    },
    {
      "inputs": [
        {
          "internalType": "uint256",
          "name": "",
          "type": "uint256"
        }
      ],
      "name": "ghost",
      "outputs": [
        {
          "internalType": "string",
          "name": "name",
          "type": "string"
        },
        {
          "internalType": "string",
          "name": "material",
          "type": "string"
        },
        {
          "internalType": "string",
          "name": "description",
          "type": "string"
        },
        {
          "internalType": "uint256",
          "name": "ghostId",
          "type": "uint256"
        },
        {
          "internalType": "uint256",
          "name": "vectorDataIndex",
          "type": "uint256"
        }
      ],
      "stateMutability": "view",
      "type": "function"
    },
    {
      "inputs": [
        {
          "internalType": "string",
          "name": "_name",
          "type": "string"
        },
        {
          "internalType": "string",
          "name": "_description",
          "type": "string"
        },
        {
          "internalType": "uint256",
          "name": "divNumHorizontal",
          "type": "uint256"
        },
        {
          "internalType": "uint256",
          "name": "divNumVertical",
          "type": "uint256"
        },
        {
          "internalType": "string[]",
          "name": "baseVVector",
          "type": "string[]"
        },
        {
          "internalType": "string[]",
          "name": "baseVnVector",
          "type": "string[]"
        }
      ],
      "name": "ghostNftMint",
      "outputs": [],
      "stateMutability": "nonpayable",
      "type": "function"
    },
    {
      "inputs": [
        {
          "internalType": "address",
          "name": "owner",
          "type": "address"
        },
        {
          "internalType": "address",
          "name": "operator",
          "type": "address"
        }
      ],
      "name": "isApprovedForAll",
      "outputs": [
        {
          "internalType": "bool",
          "name": "",
          "type": "bool"
        }
      ],
      "stateMutability": "view",
      "type": "function"
    },
    {
      "inputs": [],
      "name": "name",
      "outputs": [
        {
          "internalType": "string",
          "name": "",
          "type": "string"
        }
      ],
      "stateMutability": "view",
      "type": "function"
    },
    {
      "inputs": [
        {
          "internalType": "uint256",
          "name": "tokenId",
          "type": "uint256"
        }
      ],
      "name": "ownerOf",
      "outputs": [
        {
          "internalType": "address",
          "name": "",
          "type": "address"
        }
      ],
      "stateMutability": "view",
      "type": "function"
    },
    {
      "inputs": [
        {
          "internalType": "uint256",
          "name": "ghostId",
          "type": "uint256"
        },
        {
          "internalType": "uint256",
          "name": "_divNumHorizontal",
          "type": "uint256"
        }
      ],
      "name": "readGhost",
      "outputs": [
        {
          "internalType": "string",
          "name": "",
          "type": "string"
        },
        {
          "internalType": "string",
          "name": "",
          "type": "string"
        },
        {
          "internalType": "string",
          "name": "",
          "type": "string"
        },
        {
          "internalType": "string",
          "name": "",
          "type": "string"
        },
        {
          "internalType": "uint256",
          "name": "",
          "type": "uint256"
        },
        {
          "internalType": "uint256",
          "name": "",
          "type": "uint256"
        }
      ],
      "stateMutability": "view",
      "type": "function"
    },
    {
      "inputs": [
        {
          "internalType": "address",
          "name": "from",
          "type": "address"
        },
        {
          "internalType": "address",
          "name": "to",
          "type": "address"
        },
        {
          "internalType": "uint256",
          "name": "tokenId",
          "type": "uint256"
        }
      ],
      "name": "safeTransferFrom",
      "outputs": [],
      "stateMutability": "nonpayable",
      "type": "function"
    },
    {
      "inputs": [
        {
          "internalType": "address",
          "name": "from",
          "type": "address"
        },
        {
          "internalType": "address",
          "name": "to",
          "type": "address"
        },
        {
          "internalType": "uint256",
          "name": "tokenId",
          "type": "uint256"
        },
        {
          "internalType": "bytes",
          "name": "data",
          "type": "bytes"
        }
      ],
      "name": "safeTransferFrom",
      "outputs": [],
      "stateMutability": "nonpayable",
      "type": "function"
    },
    {
      "inputs": [
        {
          "internalType": "address",
          "name": "operator",
          "type": "address"
        },
        {
          "internalType": "bool",
          "name": "approved",
          "type": "bool"
        }
      ],
      "name": "setApprovalForAll",
      "outputs": [],
      "stateMutability": "nonpayable",
      "type": "function"
    },
    {
      "inputs": [
        {
          "internalType": "bytes4",
          "name": "interfaceId",
          "type": "bytes4"
        }
      ],
      "name": "supportsInterface",
      "outputs": [
        {
          "internalType": "bool",
          "name": "",
          "type": "bool"
        }
      ],
      "stateMutability": "view",
      "type": "function"
    },
    {
      "inputs": [],
      "name": "symbol",
      "outputs": [
        {
          "internalType": "string",
          "name": "",
          "type": "string"
        }
      ],
      "stateMutability": "view",
      "type": "function"
    },
    {
      "inputs": [
        {
          "internalType": "uint256",
          "name": "tokenId",
          "type": "uint256"
        }
      ],
      "name": "tokenURI",
      "outputs": [
        {
          "internalType": "string",
          "name": "",
          "type": "string"
        }
      ],
      "stateMutability": "view",
      "type": "function"
    },
    {
      "inputs": [
        {
          "internalType": "address",
          "name": "from",
          "type": "address"
        },
        {
          "internalType": "address",
          "name": "to",
          "type": "address"
        },
        {
          "internalType": "uint256",
          "name": "tokenId",
          "type": "uint256"
        }
      ],
      "name": "transferFrom",
      "outputs": [],
      "stateMutability": "nonpayable",
      "type": "function"
    },
    {
      "inputs": [
        {
          "internalType": "uint256",
          "name": "",
          "type": "uint256"
        }
      ],
      "name": "vectorData",
      "outputs": [
        {
          "internalType": "uint256",
          "name": "divNumHorizontal",
          "type": "uint256"
        },
        {
          "internalType": "uint256",
          "name": "divNumVertical",
          "type": "uint256"
        }
      ],
      "stateMutability": "view",
      "type": "function"
    },
    {
      "inputs": [
        {
          "internalType": "string",
          "name": "_name",
          "type": "string"
        },
        {
          "internalType": "string",
          "name": "_description",
          "type": "string"
        },
        {
          "internalType": "string",
          "name": "_material",
          "type": "string"
        },
        {
          "internalType": "uint256",
          "name": "_divNumHorizontal",
          "type": "uint256"
        }
      ],
      "name": "writeGhost",
      "outputs": [],
      "stateMutability": "nonpayable",
      "type": "function"
    }
  ],
  "bytecode": "0x6080604052604051806101800160405280610142815260200162007a56610142913960089080519060200190620000389291906200020e565b506001600b556001600c553480156200005057600080fd5b506040518060400160405280600881526020017f47686f73744e46540000000000000000000000000000000000000000000000008152506040518060400160405280600581526020017f47484f53540000000000000000000000000000000000000000000000000000008152508160009080519060200190620000d59291906200020e565b508060019080519060200190620000ee9291906200020e565b5050506200013c6040518060400160405280600f81526020017f4372656174652047686f73744e465400000000000000000000000000000000008152506200014260201b620035851760201c565b620003eb565b620001e28160405160240162000159919062000362565b6040516020818303038152906040527f41304fac000000000000000000000000000000000000000000000000000000007bffffffffffffffffffffffffffffffffffffffffffffffffffffffff19166020820180517bffffffffffffffffffffffffffffffffffffffffffffffffffffffff8381831617835250505050620001e560201b60201c565b50565b60008151905060006a636f6e736f6c652e6c6f679050602083016000808483855afa5050505050565b8280546200021c90620003b5565b90600052602060002090601f0160209004810192826200024057600085556200028c565b82601f106200025b57805160ff19168380011785556200028c565b828001600101855582156200028c579182015b828111156200028b5782518255916020019190600101906200026e565b5b5090506200029b91906200029f565b5090565b5b80821115620002ba576000816000905550600101620002a0565b5090565b600081519050919050565b600082825260208201905092915050565b60005b83811015620002fa578082015181840152602081019050620002dd565b838111156200030a576000848401525b50505050565b6000601f19601f8301169050919050565b60006200032e82620002be565b6200033a8185620002c9565b93506200034c818560208601620002da565b620003578162000310565b840191505092915050565b600060208201905081810360008301526200037e818462000321565b905092915050565b7f4e487b7100000000000000000000000000000000000000000000000000000000600052602260045260246000fd5b60006002820490506001821680620003ce57607f821691505b60208210811415620003e557620003e462000386565b5b50919050565b61765b80620003fb6000396000f3fe608060405234801561001057600080fd5b50600436106101585760003560e01c806372f4d3bb116100c3578063bf55f8e81161007c578063bf55f8e814610400578063c87b56dd14610430578063e86d555514610460578063e985e9c514610490578063ec5ea31f146104c0578063fd98a118146104f557610158565b806372f4d3bb146103145780638c9111be1461034857806394aa24851461037957806395d89b41146103aa578063a22cb465146103c8578063b88d4fde146103e457610158565b806319f5d6fe1161011557806319f5d6fe1461024457806323b872dd1461026057806342842e0e1461027c5780635f65c50e146102985780636352211e146102b457806370a08231146102e457610158565b806301ffc9a71461015d57806306fdde031461018d578063081812fc146101ab578063095ea7b3146101db57806317006991146101f757806317dcff5514610228575b600080fd5b61017760048036038101906101729190614b8b565b610513565b6040516101849190614bd3565b60405180910390f35b6101956105f5565b6040516101a29190614c87565b60405180910390f35b6101c560048036038101906101c09190614cdf565b610687565b6040516101d29190614d4d565b60405180910390f35b6101f560048036038101906101f09190614d94565b6106cd565b005b610211600480360381019061020c9190614fef565b6107e5565b60405161021f9291906150aa565b60405180910390f35b610242600480360381019061023d91906150e1565b610e21565b005b61025e6004803603810190610259919061519c565b61115f565b005b61027a6004803603810190610275919061523b565b611239565b005b6102966004803603810190610291919061523b565b611299565b005b6102b260048036038101906102ad919061528e565b6112b9565b005b6102ce60048036038101906102c99190614cdf565b61153d565b6040516102db9190614d4d565b60405180910390f35b6102fe60048036038101906102f9919061538b565b6115ef565b60405161030b91906153c7565b60405180910390f35b61032e60048036038101906103299190614cdf565b6116a7565b60405161033f9594939291906153e2565b60405180910390f35b610362600480360381019061035d9190614cdf565b611885565b60405161037092919061544a565b60405180910390f35b610393600480360381019061038e9190614fef565b6118b9565b6040516103a19291906150aa565b60405180910390f35b6103b2612454565b6040516103bf9190614c87565b60405180910390f35b6103e260048036038101906103dd919061549f565b6124e6565b005b6103fe60048036038101906103f99190615580565b6124fc565b005b61041a60048036038101906104159190615603565b61255e565b6040516104279190614c87565b60405180910390f35b61044a60048036038101906104459190614cdf565b61293c565b6040516104579190614c87565b60405180910390f35b61047a60048036038101906104759190615643565b612a4f565b6040516104879190614c87565b60405180910390f35b6104aa60048036038101906104a591906156ce565b612fff565b6040516104b79190614bd3565b60405180910390f35b6104da60048036038101906104d59190615603565b613093565b6040516104ec9695949392919061570e565b60405180910390f35b6104fd61335c565b60405161050a919061592a565b60405180910390f35b60007f80ac58cd000000000000000000000000000000000000000000000000000000007bffffffffffffffffffffffffffffffffffffffffffffffffffffffff1916827bffffffffffffffffffffffffffffffffffffffffffffffffffffffff191614806105de57507f5b5e139f000000000000000000000000000000000000000000000000000000007bffffffffffffffffffffffffffffffffffffffffffffffffffffffff1916827bffffffffffffffffffffffffffffffffffffffffffffffffffffffff1916145b806105ee57506105ed8261361e565b5b9050919050565b6060600080546106049061597b565b80601f01602080910402602001604051908101604052809291908181526020018280546106309061597b565b801561067d5780601f106106525761010080835404028352916020019161067d565b820191906000526020600020905b81548152906001019060200180831161066057829003601f168201915b5050505050905090565b600061069282613688565b6004600083815260200190815260200160002060009054906101000a900473ffffffffffffffffffffffffffffffffffffffff169050919050565b60006106d88261153d565b90508073ffffffffffffffffffffffffffffffffffffffff168373ffffffffffffffffffffffffffffffffffffffff161415610749576040517f08c379a000000000000000000000000000000000000000000000000000000000815260040161074090615a1f565b60405180910390fd5b8073ffffffffffffffffffffffffffffffffffffffff166107686136d3565b73ffffffffffffffffffffffffffffffffffffffff1614806107975750610796816107916136d3565b612fff565b5b6107d6576040517f08c379a00000000000000000000000000000000000000000000000000000000081526004016107cd90615ab1565b60405180910390fd5b6107e083836136db565b505050565b60608060005b60038110156109f55784866003836108039190615b00565b60098a6108109190615b00565b61081a9190615b5a565b8151811061082b5761082a615bb0565b5b60200260200101518760016003856108439190615b00565b60098c6108509190615b00565b61085a9190615b5a565b6108649190615b5a565b8151811061087557610874615bb0565b5b602002602001015188600260038661088d9190615b00565b60098d61089a9190615b00565b6108a49190615b5a565b6108ae9190615b5a565b815181106108bf576108be615bb0565b5b60200260200101516040516020016108da9493929190615c8d565b604051602081830303815290604052945083866003836108fa9190615b00565b60098a6109079190615b00565b6109119190615b5a565b8151811061092257610921615bb0565b5b602002602001015187600160038561093a9190615b00565b60098c6109479190615b00565b6109519190615b5a565b61095b9190615b5a565b8151811061096c5761096b615bb0565b5b60200260200101518860026003866109849190615b00565b60098d6109919190615b00565b61099b9190615b5a565b6109a59190615b5a565b815181106109b6576109b5615bb0565b5b60200260200101516040516020016109d19493929190615d2d565b604051602081830303815290604052935080806109ed90615da7565b9150506107eb565b5060005b6003811015610c03578486600383610a119190615b00565b60098a610a1e9190615b00565b610a289190615b5a565b81518110610a3957610a38615bb0565b5b6020026020010151876001600385610a519190615b00565b60098c610a5e9190615b00565b610a689190615b5a565b610a729190615b5a565b81518110610a8357610a82615bb0565b5b6020026020010151886002600386610a9b9190615b00565b60098d610aa89190615b00565b610ab29190615b5a565b610abc9190615b5a565b81518110610acd57610acc615bb0565b5b6020026020010151604051602001610ae89493929190615df0565b60405160208183030381529060405294508386600383610b089190615b00565b60098a610b159190615b00565b610b1f9190615b5a565b81518110610b3057610b2f615bb0565b5b6020026020010151876001600385610b489190615b00565b60098c610b559190615b00565b610b5f9190615b5a565b610b699190615b5a565b81518110610b7a57610b79615bb0565b5b6020026020010151886002600386610b929190615b00565b60098d610b9f9190615b00565b610ba99190615b5a565b610bb39190615b5a565b81518110610bc457610bc3615bb0565b5b6020026020010151604051602001610bdf9493929190615e6a565b60405160208183030381529060405293508080610bfb90615da7565b9150506109f9565b5060005b6003811015610e11578486600383610c1f9190615b00565b60098a610c2c9190615b00565b610c369190615b5a565b81518110610c4757610c46615bb0565b5b6020026020010151876001600385610c5f9190615b00565b60098c610c6c9190615b00565b610c769190615b5a565b610c809190615b5a565b81518110610c9157610c90615bb0565b5b6020026020010151886002600386610ca99190615b00565b60098d610cb69190615b00565b610cc09190615b5a565b610cca9190615b5a565b81518110610cdb57610cda615bb0565b5b6020026020010151604051602001610cf69493929190615f0a565b60405160208183030381529060405294508386600383610d169190615b00565b60098a610d239190615b00565b610d2d9190615b5a565b81518110610d3e57610d3d615bb0565b5b6020026020010151876001600385610d569190615b00565b60098c610d639190615b00565b610d6d9190615b5a565b610d779190615b5a565b81518110610d8857610d87615bb0565b5b6020026020010151886002600386610da09190615b00565b60098d610dad9190615b00565b610db79190615b5a565b610dc19190615b5a565b81518110610dd257610dd1615bb0565b5b6020026020010151604051602001610ded9493929190615f84565b60405160208183030381529060405293508080610e0990615da7565b915050610c07565b5083839150915094509492505050565b6000600d600083815260200190815260200160002054905060006040518060a00160405280878152602001868152602001858152602001600b548152602001838152509050600a8190806001815401808255809150506001900390600052602060002090600502016000909190919091506000820151816000019080519060200190610eae9291906149b8565b506020820151816001019080519060200190610ecb9291906149b8565b506040820151816002019080519060200190610ee89291906149b8565b5060608201518160030155608082015181600401555050600b6000815480929190610f1290615da7565b9190505550611157868660098581548110610f3057610f2f615bb0565b5b90600052602060002090600402016000015460098681548110610f5657610f55615bb0565b5b90600052602060002090600402016001015460098781548110610f7c57610f7b615bb0565b5b9060005260206000209060040201600201805480602002602001604051908101604052809291908181526020016000905b82821015611059578382906000526020600020018054610fcc9061597b565b80601f0160208091040260200160405190810160405280929190818152602001828054610ff89061597b565b80156110455780601f1061101a57610100808354040283529160200191611045565b820191906000526020600020905b81548152906001019060200180831161102857829003601f168201915b505050505081526020019060010190610fad565b505050506009888154811061107157611070615bb0565b5b9060005260206000209060040201600301805480602002602001604051908101604052809291908181526020016000905b8282101561114e5783829060005260206000200180546110c19061597b565b80601f01602080910402602001604051908101604052809291908181526020018280546110ed9061597b565b801561113a5780601f1061110f5761010080835404028352916020019161113a565b820191906000526020600020905b81548152906001019060200180831161111d57829003601f168201915b5050505050815260200190600101906110a2565b505050506112b9565b505050505050565b600060405180608001604052808681526020018581526020018481526020018381525090506009819080600181540180825580915050600190039060005260206000209060040201600090919091909150600082015181600001556020820151816001015560408201518160020190805190602001906111e0929190614a3e565b5060608201518160030190805190602001906111fd929190614a3e565b505050600c54600d600087815260200190815260200160002081905550600c600081548092919061122d90615da7565b91905055505050505050565b61124a6112446136d3565b82613794565b611289576040517f08c379a000000000000000000000000000000000000000000000000000000000815260040161128090616070565b60405180910390fd5b611294838383613829565b505050565b6112b4838383604051806020016040528060008152506124fc565b505050565b60006112c56007613a90565b90506000600880546112d69061597b565b80601f01602080910402602001604051908101604052809291908181526020018280546113029061597b565b801561134f5780601f106113245761010080835404028352916020019161134f565b820191906000526020600020905b81548152906001019060200180831161133257829003601f168201915b50505050509050606061136187613a9e565b61136a87613a9e565b60405160200161137b929190616090565b6040516020818303038152906040529050818160405160200161139f929190616100565b60405160208183030381529060405291506113ee6040518060400160405280601581526020017f0a2d2d2d2d2d205356472064617461202d2d2d2d2d0000000000000000000000815250613585565b6113f782613585565b6114356040518060400160405280601581526020017f2d2d2d2d2d2d2d2d2d2d2d2d2d2d2d2d2d2d2d2d0a0000000000000000000000815250613585565b60006114638a8a8560405160200161144f93929190616285565b604051602081830303815290604052613bff565b905060008390506114a86040518060400160405280601581526020017f0a2d2d2d2d2d20546f6b656e20555249202d2d2d2d0000000000000000000000815250613585565b6114b181613585565b6114ef6040518060400160405280601581526020017f2d2d2d2d2d2d2d2d2d2d2d2d2d2d2d2d2d2d2d2d0a0000000000000000000000815250613585565b6114f93386613d84565b6115038582613da2565b6115266040518060600160405280602581526020016175c1602591398633613e16565b6115306007613eb5565b5050505050505050505050565b6000806002600084815260200190815260200160002060009054906101000a900473ffffffffffffffffffffffffffffffffffffffff169050600073ffffffffffffffffffffffffffffffffffffffff168173ffffffffffffffffffffffffffffffffffffffff1614156115e6576040517f08c379a00000000000000000000000000000000000000000000000000000000081526004016115dd9061632e565b60405180910390fd5b80915050919050565b60008073ffffffffffffffffffffffffffffffffffffffff168273ffffffffffffffffffffffffffffffffffffffff161415611660576040517f08c379a0000000000000000000000000000000000000000000000000000000008152600401611657906163c0565b60405180910390fd5b600360008373ffffffffffffffffffffffffffffffffffffffff1673ffffffffffffffffffffffffffffffffffffffff168152602001908152602001600020549050919050565b600a81815481106116b757600080fd5b90600052602060002090600502016000915090508060000180546116da9061597b565b80601f01602080910402602001604051908101604052809291908181526020018280546117069061597b565b80156117535780601f1061172857610100808354040283529160200191611753565b820191906000526020600020905b81548152906001019060200180831161173657829003601f168201915b5050505050908060010180546117689061597b565b80601f01602080910402602001604051908101604052809291908181526020018280546117949061597b565b80156117e15780601f106117b6576101008083540402835291602001916117e1565b820191906000526020600020905b8154815290600101906020018083116117c457829003601f168201915b5050505050908060020180546117f69061597b565b80601f01602080910402602001604051908101604052809291908181526020018280546118229061597b565b801561186f5780601f106118445761010080835404028352916020019161186f565b820191906000526020600020905b81548152906001019060200180831161185257829003601f168201915b5050505050908060030154908060040154905085565b6009818154811061189557600080fd5b90600052602060002090600402016000915090508060000154908060010154905082565b606080838560026009896118cd9190615b00565b6118d79190615b5a565b815181106118e8576118e7615bb0565b5b602002602001015186600160098a6119009190615b00565b61190a9190615b5a565b8151811061191b5761191a615bb0565b5b60200260200101518760098a6119319190615b00565b8151811061194257611941615bb0565b5b602002602001015160405160200161195d9493929190616406565b60405160208183030381529060405293508285600260098961197f9190615b00565b6119899190615b5a565b8151811061199a57611999615bb0565b5b602002602001015186600160098a6119b29190615b00565b6119bc9190615b5a565b815181106119cd576119cc615bb0565b5b60200260200101518760098a6119e39190615b00565b815181106119f4576119f3615bb0565b5b6020026020010151604051602001611a0f9493929190616480565b60405160208183030381529060405292506000600290505b6000811115611c31578486600383611a3f9190615b00565b60098a611a4c9190615b00565b611a569190615b5a565b81518110611a6757611a66615bb0565b5b6020026020010151876001600385611a7f9190615b00565b60098c611a8c9190615b00565b611a969190615b5a565b611aa09190615b5a565b81518110611ab157611ab0615bb0565b5b6020026020010151886002600386611ac99190615b00565b60098d611ad69190615b00565b611ae09190615b5a565b611aea9190615b5a565b81518110611afb57611afa615bb0565b5b6020026020010151604051602001611b169493929190616406565b60405160208183030381529060405294508386600383611b369190615b00565b60098a611b439190615b00565b611b4d9190615b5a565b81518110611b5e57611b5d615bb0565b5b6020026020010151876001600385611b769190615b00565b60098c611b839190615b00565b611b8d9190615b5a565b611b979190615b5a565b81518110611ba857611ba7615bb0565b5b6020026020010151886002600386611bc09190615b00565b60098d611bcd9190615b00565b611bd79190615b5a565b611be19190615b5a565b81518110611bf257611bf1615bb0565b5b6020026020010151604051602001611c0d9493929190616480565b60405160208183030381529060405293508080611c29906164fa565b915050611a27565b5060005b60038110156120ce57604051602001611c4d90616570565b60405160208183030381529060405280519060200120866002600384611c739190615b00565b60098b611c809190615b00565b611c8a9190615b5a565b611c949190615b5a565b81518110611ca557611ca4615bb0565b5b6020026020010151604051602001611cbd9190616585565b604051602081830303815290604052805190602001201415611ecc578486600383611ce89190615b00565b60098a611cf59190615b00565b611cff9190615b5a565b81518110611d1057611d0f615bb0565b5b6020026020010151876001600385611d289190615b00565b60098c611d359190615b00565b611d3f9190615b5a565b611d499190615b5a565b81518110611d5a57611d59615bb0565b5b6020026020010151886002600386611d729190615b00565b60098d611d7f9190615b00565b611d899190615b5a565b611d939190615b5a565b81518110611da457611da3615bb0565b5b6020026020010151604051602001611dbf9493929190616406565b60405160208183030381529060405294508386600383611ddf9190615b00565b60098a611dec9190615b00565b611df69190615b5a565b81518110611e0757611e06615bb0565b5b6020026020010151876001600385611e1f9190615b00565b60098c611e2c9190615b00565b611e369190615b5a565b611e409190615b5a565b81518110611e5157611e50615bb0565b5b6020026020010151886002600386611e699190615b00565b60098d611e769190615b00565b611e809190615b5a565b611e8a9190615b5a565b81518110611e9b57611e9a615bb0565b5b6020026020010151604051602001611eb69493929190616480565b60405160208183030381529060405293506120bb565b8486600383611edb9190615b00565b60098a611ee89190615b00565b611ef29190615b5a565b81518110611f0357611f02615bb0565b5b6020026020010151876001600385611f1b9190615b00565b60098c611f289190615b00565b611f329190615b5a565b611f3c9190615b5a565b81518110611f4d57611f4c615bb0565b5b6020026020010151886002600386611f659190615b00565b60098d611f729190615b00565b611f7c9190615b5a565b611f869190615b5a565b81518110611f9757611f96615bb0565b5b6020026020010151604051602001611fb2949392919061659c565b60405160208183030381529060405294508386600383611fd29190615b00565b60098a611fdf9190615b00565b611fe99190615b5a565b81518110611ffa57611ff9615bb0565b5b60200260200101518760016003856120129190615b00565b60098c61201f9190615b00565b6120299190615b5a565b6120339190615b5a565b8151811061204457612043615bb0565b5b602002602001015188600260038661205c9190615b00565b60098d6120699190615b00565b6120739190615b5a565b61207d9190615b5a565b8151811061208e5761208d615bb0565b5b60200260200101516040516020016120a99493929190616616565b60405160208183030381529060405293505b80806120c690615da7565b915050611c35565b50838560026009896120e09190615b00565b6120ea9190615b5a565b815181106120fb576120fa615bb0565b5b602002602001015186600160098a6121139190615b00565b61211d9190615b5a565b8151811061212e5761212d615bb0565b5b60200260200101518760098a6121449190615b00565b8151811061215557612154615bb0565b5b602002602001015160405160200161217094939291906166b6565b6040516020818303038152906040529350828560026009896121929190615b00565b61219c9190615b5a565b815181106121ad576121ac615bb0565b5b602002602001015186600160098a6121c59190615b00565b6121cf9190615b5a565b815181106121e0576121df615bb0565b5b60200260200101518760098a6121f69190615b00565b8151811061220757612206615bb0565b5b60200260200101516040516020016122229493929190616730565b60405160208183030381529060405292506000600290505b60008111156124445784866003836122529190615b00565b60098a61225f9190615b00565b6122699190615b5a565b8151811061227a57612279615bb0565b5b60200260200101518760016003856122929190615b00565b60098c61229f9190615b00565b6122a99190615b5a565b6122b39190615b5a565b815181106122c4576122c3615bb0565b5b60200260200101518860026003866122dc9190615b00565b60098d6122e99190615b00565b6122f39190615b5a565b6122fd9190615b5a565b8151811061230e5761230d615bb0565b5b602002602001015160405160200161232994939291906166b6565b604051602081830303815290604052945083866003836123499190615b00565b60098a6123569190615b00565b6123609190615b5a565b8151811061237157612370615bb0565b5b60200260200101518760016003856123899190615b00565b60098c6123969190615b00565b6123a09190615b5a565b6123aa9190615b5a565b815181106123bb576123ba615bb0565b5b60200260200101518860026003866123d39190615b00565b60098d6123e09190615b00565b6123ea9190615b5a565b6123f49190615b5a565b8151811061240557612404615bb0565b5b60200260200101516040516020016124209493929190616730565b6040516020818303038152906040529350808061243c906164fa565b91505061223a565b5083839150915094509492505050565b6060600180546124639061597b565b80601f016020809104026020016040519081016040528092919081815260200182805461248f9061597b565b80156124dc5780601f106124b1576101008083540402835291602001916124dc565b820191906000526020600020905b8154815290600101906020018083116124bf57829003601f168201915b5050505050905090565b6124f86124f16136d3565b8383613ecb565b5050565b61250d6125076136d3565b83613794565b61254c576040517f08c379a000000000000000000000000000000000000000000000000000000000815260040161254390616070565b60405180910390fd5b61255884848484614038565b50505050565b6060806000600190505b83811161293157600061257a82613a9e565b9050858210156125e3578261259a6001846125959190615b5a565b613a9e565b828384856125b36002896125ae9190615b5a565b613a9e565b87886040516020016125cd9998979695949392919061681c565b604051602081830303815290604052925061291d565b8582141561264a57826126016001846125fc9190615b5a565b613a9e565b8283848561261a600a896126159190616922565b613a9e565b87886040516020016126349998979695949392919061681c565b604051602081830303815290604052925061291c565b848214156126d2578261267e600280896126649190615b00565b8561266f9190616922565b6126799190615b5a565b613a9e565b828384856126a260018d8a6126939190616922565b61269d9190615b5a565b613a9e565b87886040516020016126bc9998979695949392919061697c565b604051602081830303815290604052925061291b565b600186866126e09190616922565b6126ea9190615b5a565b82106127655782612711600288856127029190616922565b61270c9190615b5a565b613a9e565b8283848561273560018d8a6127269190616922565b6127309190615b5a565b613a9e565b878860405160200161274f9998979695949392919061697c565b604051602081830303815290604052925061291a565b600086836127739190616ab1565b141561285657826127a56002808961278b9190615b00565b856127969190616922565b6127a09190615b5a565b613a9e565b82836127c760028b886127b89190616922565b6127c29190615b5a565b613a9e565b85866040516020016127df9796959493929190616ae2565b6040516020818303038152906040529250826128066001846128019190615b5a565b613a9e565b828361282860018b886128199190616922565b6128239190615b5a565b613a9e565b85866040516020016128409796959493929190616ba1565b6040516020818303038152906040529250612919565b82612877600288856128689190616922565b6128729190615b5a565b613a9e565b828361288e6002876128899190615b5a565b613a9e565b85866040516020016128a69796959493929190616ae2565b6040516020818303038152906040529250826128cd6001846128c89190615b5a565b613a9e565b82836128ef60018b886128e09190616922565b6128ea9190615b5a565b613a9e565b85866040516020016129079796959493929190616ba1565b60405160208183030381529060405292505b5b5b5b5b50808061292990615da7565b915050612568565b508091505092915050565b606061294782613688565b60006006600084815260200190815260200160002080546129679061597b565b80601f01602080910402602001604051908101604052809291908181526020018280546129939061597b565b80156129e05780601f106129b5576101008083540402835291602001916129e0565b820191906000526020600020905b8154815290600101906020018083116129c357829003601f168201915b5050505050905060006129f1614094565b9050600081511415612a07578192505050612a4a565b600082511115612a3c578082604051602001612a24929190616090565b60405160208183030381529060405292505050612a4a565b612a45846140ab565b925050505b919050565b60608060608060005b600287612a659190616c6f565b811015612fcd57838887600984612a7c9190615b00565b81518110612a8d57612a8c615bb0565b5b6020026020010151886001600986612aa59190615b00565b612aaf9190615b5a565b81518110612ac057612abf615bb0565b5b6020026020010151896002600987612ad89190615b00565b612ae29190615b5a565b81518110612af357612af2615bb0565b5b6020026020010151604051602001612b0f959493929190616ca0565b60405160208183030381529060405293508388876003600985612b329190615b00565b612b3c9190615b5a565b81518110612b4d57612b4c615bb0565b5b6020026020010151886004600986612b659190615b00565b612b6f9190615b5a565b81518110612b8057612b7f615bb0565b5b6020026020010151896005600987612b989190615b00565b612ba29190615b5a565b81518110612bb357612bb2615bb0565b5b6020026020010151604051602001612bcf959493929190616ca0565b60405160208183030381529060405293508388876006600985612bf29190615b00565b612bfc9190615b5a565b81518110612c0d57612c0c615bb0565b5b6020026020010151886007600986612c259190615b00565b612c2f9190615b5a565b81518110612c4057612c3f615bb0565b5b6020026020010151896008600987612c589190615b00565b612c629190615b5a565b81518110612c7357612c72615bb0565b5b6020026020010151604051602001612c8f959493929190616ca0565b60405160208183030381529060405293508786600983612caf9190615b00565b81518110612cc057612cbf615bb0565b5b6020026020010151876001600985612cd89190615b00565b612ce29190615b5a565b81518110612cf357612cf2615bb0565b5b6020026020010151886002600986612d0b9190615b00565b612d159190615b5a565b81518110612d2657612d25615bb0565b5b6020026020010151604051602001612d419493929190616d27565b60405160208183030381529060405292508288876003600985612d649190615b00565b612d6e9190615b5a565b81518110612d7f57612d7e615bb0565b5b6020026020010151886004600986612d979190615b00565b612da19190615b5a565b81518110612db257612db1615bb0565b5b6020026020010151896005600987612dca9190615b00565b612dd49190615b5a565b81518110612de557612de4615bb0565b5b6020026020010151604051602001612e01959493929190616da1565b60405160208183030381529060405292508288876006600985612e249190615b00565b612e2e9190615b5a565b81518110612e3f57612e3e615bb0565b5b6020026020010151886007600986612e579190615b00565b612e619190615b5a565b81518110612e7257612e71615bb0565b5b6020026020010151896008600987612e8a9190615b00565b612e949190615b5a565b81518110612ea557612ea4615bb0565b5b6020026020010151604051602001612ec1959493929190616da1565b6040516020818303038152906040529250604051602001612ee190616e74565b6040516020818303038152906040528051906020012088604051602001612f089190616585565b604051602081830303815290604052805190602001201415612f8157612f30818786866118b9565b8094508195505050806001600289612f489190616c6f565b612f529190616922565b14612f7c578282604051602001612f6a929190616090565b60405160208183030381529060405291505b612fba565b612f8d818786866107e5565b80945081955050508282604051602001612fa8929190616090565b60405160208183030381529060405291505b8080612fc590615da7565b915050612a58565b508281604051602001612fe1929190616090565b60405160208183030381529060405292508293505050509392505050565b6000600560008473ffffffffffffffffffffffffffffffffffffffff1673ffffffffffffffffffffffffffffffffffffffff16815260200190815260200160002060008373ffffffffffffffffffffffffffffffffffffffff1673ffffffffffffffffffffffffffffffffffffffff16815260200190815260200160002060009054906101000a900460ff16905092915050565b60608060608060008060006130a788614113565b905080600a60018b6130b99190616922565b815481106130ca576130c9615bb0565b5b9060005260206000209060050201600001600a60018c6130ea9190616922565b815481106130fb576130fa615bb0565b5b9060005260206000209060050201600201600a60018d61311b9190616922565b8154811061312c5761312b615bb0565b5b9060005260206000209060050201600101600a60018e61314c9190616922565b8154811061315d5761315c615bb0565b5b906000526020600020906005020160030154600a60018f61317e9190616922565b8154811061318f5761318e615bb0565b5b9060005260206000209060050201600401548480546131ad9061597b565b80601f01602080910402602001604051908101604052809291908181526020018280546131d99061597b565b80156132265780601f106131fb57610100808354040283529160200191613226565b820191906000526020600020905b81548152906001019060200180831161320957829003601f168201915b505050505094508380546132399061597b565b80601f01602080910402602001604051908101604052809291908181526020018280546132659061597b565b80156132b25780601f10613287576101008083540402835291602001916132b2565b820191906000526020600020905b81548152906001019060200180831161329557829003601f168201915b505050505093508280546132c59061597b565b80601f01602080910402602001604051908101604052809291908181526020018280546132f19061597b565b801561333e5780601f106133135761010080835404028352916020019161333e565b820191906000526020600020905b81548152906001019060200180831161332157829003601f168201915b50505050509250965096509650965096509650509295509295509295565b6060600a805480602002602001604051908101604052809291908181526020016000905b8282101561357c57838290600052602060002090600502016040518060a00160405290816000820180546133b39061597b565b80601f01602080910402602001604051908101604052809291908181526020018280546133df9061597b565b801561342c5780601f106134015761010080835404028352916020019161342c565b820191906000526020600020905b81548152906001019060200180831161340f57829003601f168201915b505050505081526020016001820180546134459061597b565b80601f01602080910402602001604051908101604052809291908181526020018280546134719061597b565b80156134be5780601f10613493576101008083540402835291602001916134be565b820191906000526020600020905b8154815290600101906020018083116134a157829003601f168201915b505050505081526020016002820180546134d79061597b565b80601f01602080910402602001604051908101604052809291908181526020018280546135039061597b565b80156135505780601f1061352557610100808354040283529160200191613550565b820191906000526020600020905b81548152906001019060200180831161353357829003601f168201915b505050505081526020016003820154815260200160048201548152505081526020019060010190613380565b50505050905090565b61361b816040516024016135999190614c87565b6040516020818303038152906040527f41304fac000000000000000000000000000000000000000000000000000000007bffffffffffffffffffffffffffffffffffffffffffffffffffffffff19166020820180517bffffffffffffffffffffffffffffffffffffffffffffffffffffffff8381831617835250505050614539565b50565b60007f01ffc9a7000000000000000000000000000000000000000000000000000000007bffffffffffffffffffffffffffffffffffffffffffffffffffffffff1916827bffffffffffffffffffffffffffffffffffffffffffffffffffffffff1916149050919050565b61369181614562565b6136d0576040517f08c379a00000000000000000000000000000000000000000000000000000000081526004016136c79061632e565b60405180910390fd5b50565b600033905090565b816004600083815260200190815260200160002060006101000a81548173ffffffffffffffffffffffffffffffffffffffff021916908373ffffffffffffffffffffffffffffffffffffffff160217905550808273ffffffffffffffffffffffffffffffffffffffff1661374e8361153d565b73ffffffffffffffffffffffffffffffffffffffff167f8c5be1e5ebec7d5bd14f71427d1e84f3dd0314c0f7b2291e5b200ac8c7c3b92560405160405180910390a45050565b6000806137a08361153d565b90508073ffffffffffffffffffffffffffffffffffffffff168473ffffffffffffffffffffffffffffffffffffffff1614806137e257506137e18185612fff565b5b8061382057508373ffffffffffffffffffffffffffffffffffffffff1661380884610687565b73ffffffffffffffffffffffffffffffffffffffff16145b91505092915050565b8273ffffffffffffffffffffffffffffffffffffffff166138498261153d565b73ffffffffffffffffffffffffffffffffffffffff161461389f576040517f08c379a000000000000000000000000000000000000000000000000000000000815260040161389690616efb565b60405180910390fd5b600073ffffffffffffffffffffffffffffffffffffffff168273ffffffffffffffffffffffffffffffffffffffff16141561390f576040517f08c379a000000000000000000000000000000000000000000000000000000000815260040161390690616f8d565b60405180910390fd5b61391a8383836145ce565b6139256000826136db565b6001600360008573ffffffffffffffffffffffffffffffffffffffff1673ffffffffffffffffffffffffffffffffffffffff16815260200190815260200160002060008282546139759190616922565b925050819055506001600360008473ffffffffffffffffffffffffffffffffffffffff1673ffffffffffffffffffffffffffffffffffffffff16815260200190815260200160002060008282546139cc9190615b5a565b92505081905550816002600083815260200190815260200160002060006101000a81548173ffffffffffffffffffffffffffffffffffffffff021916908373ffffffffffffffffffffffffffffffffffffffff160217905550808273ffffffffffffffffffffffffffffffffffffffff168473ffffffffffffffffffffffffffffffffffffffff167fddf252ad1be2c89b69c2b068fc378daa952ba7f163c4a11628f55a4df523b3ef60405160405180910390a4613a8b8383836145d3565b505050565b600081600001549050919050565b60606000821415613ae6576040518060400160405280600181526020017f30000000000000000000000000000000000000000000000000000000000000008152509050613bfa565b600082905060005b60008214613b18578080613b0190615da7565b915050600a82613b119190616c6f565b9150613aee565b60008167ffffffffffffffff811115613b3457613b33614dd9565b5b6040519080825280601f01601f191660200182016040528015613b665781602001600182028036833780820191505090505b5090505b60008514613bf357600182613b7f9190616922565b9150600a85613b8e9190616ab1565b6030613b9a9190615b5a565b60f81b818381518110613bb057613baf615bb0565b5b60200101907effffffffffffffffffffffffffffffffffffffffffffffffffffffffffffff1916908160001a905350600a85613bec9190616c6f565b9450613b6a565b8093505050505b919050565b6060600082511415613c2257604051806020016040528060008152509050613d7f565b60006040518060600160405280604081526020016175e66040913990506000600360028551613c519190615b5a565b613c5b9190616c6f565b6004613c679190615b00565b90506000602082613c789190615b5a565b67ffffffffffffffff811115613c9157613c90614dd9565b5b6040519080825280601f01601f191660200182016040528015613cc35781602001600182028036833780820191505090505b509050818152600183018586518101602084015b81831015613d3e576003830192508251603f8160121c1685015160f81b8252600182019150603f81600c1c1685015160f81b8252600182019150603f8160061c1685015160f81b8252600182019150603f811685015160f81b825260018201915050613cd7565b600389510660018114613d585760028114613d6857613d73565b613d3d60f01b6002830352613d73565b603d60f81b60018303525b50505050508093505050505b919050565b613d9e8282604051806020016040528060008152506145d8565b5050565b613dab82614562565b613dea576040517f08c379a0000000000000000000000000000000000000000000000000000000008152600401613de19061701f565b60405180910390fd5b80600660008481526020019081526020016000209080519060200190613e119291906149b8565b505050565b613eb0838383604051602401613e2e9392919061703f565b6040516020818303038152906040527f1c7ec448000000000000000000000000000000000000000000000000000000007bffffffffffffffffffffffffffffffffffffffffffffffffffffffff19166020820180517bffffffffffffffffffffffffffffffffffffffffffffffffffffffff8381831617835250505050614539565b505050565b6001816000016000828254019250508190555050565b8173ffffffffffffffffffffffffffffffffffffffff168373ffffffffffffffffffffffffffffffffffffffff161415613f3a576040517f08c379a0000000000000000000000000000000000000000000000000000000008152600401613f31906170c9565b60405180910390fd5b80600560008573ffffffffffffffffffffffffffffffffffffffff1673ffffffffffffffffffffffffffffffffffffffff16815260200190815260200160002060008473ffffffffffffffffffffffffffffffffffffffff1673ffffffffffffffffffffffffffffffffffffffff16815260200190815260200160002060006101000a81548160ff0219169083151502179055508173ffffffffffffffffffffffffffffffffffffffff168373ffffffffffffffffffffffffffffffffffffffff167f17307eab39ab6107e8899845ad3d59bd9653f200f220920489ca2b5937696c318360405161402b9190614bd3565b60405180910390a3505050565b614043848484613829565b61404f84848484614633565b61408e576040517f08c379a00000000000000000000000000000000000000000000000000000000081526004016140859061715b565b60405180910390fd5b50505050565b606060405180602001604052806000815250905090565b60606140b682613688565b60006140c0614094565b905060008151116140e0576040518060200160405280600081525061410b565b806140ea84613a9e565b6040516020016140fb929190616090565b6040516020818303038152906040525b915050919050565b60606000600d6000848152602001908152602001600020541161416b576040517f08c379a0000000000000000000000000000000000000000000000000000000008152600401614162906171ed565b60405180910390fd5b60006001600d60008581526020019081526020016000205461418d9190616922565b90506000600982815481106141a5576141a4615bb0565b5b90600052602060002090600402016000015490506000600983815481106141cf576141ce615bb0565b5b90600052602060002090600402016001015490506000600984815481106141f9576141f8615bb0565b5b9060005260206000209060040201600201805480602002602001604051908101604052809291908181526020016000905b828210156142d65783829060005260206000200180546142499061597b565b80601f01602080910402602001604051908101604052809291908181526020018280546142759061597b565b80156142c25780601f10614297576101008083540402835291602001916142c2565b820191906000526020600020905b8154815290600101906020018083116142a557829003601f168201915b50505050508152602001906001019061422a565b5050505090506000600985815481106142f2576142f1615bb0565b5b9060005260206000209060040201600301805480602002602001604051908101604052809291908181526020016000905b828210156143cf5783829060005260206000200180546143429061597b565b80601f016020809104026020016040519081016040528092919081815260200182805461436e9061597b565b80156143bb5780601f10614390576101008083540402835291602001916143bb565b820191906000526020600020905b81548152906001019060200180831161439e57829003601f168201915b505050505081526020019060010190614323565b50505050905060006144176040518060400160405280600181526020017f76000000000000000000000000000000000000000000000000000000000000008152508585612a4f565b9050600061445b6040518060400160405280600281526020017f766e0000000000000000000000000000000000000000000000000000000000008152508685612a4f565b90508160405160200161446e9190617259565b604051602081830303815290604052915060006144968787896144919190615b00565b61255e565b90508282826040516020016144ad9392919061734c565b60405160208183030381529060405290506144fc6040518060400160405280600c81526020017f664d657368206372656174650000000000000000000000000000000000000000815250613585565b61450581613bff565b90508060405160200161451891906173e3565b60405160208183030381529060405290508098505050505050505050919050565b60008151905060006a636f6e736f6c652e6c6f679050602083016000808483855afa5050505050565b60008073ffffffffffffffffffffffffffffffffffffffff166002600084815260200190815260200160002060009054906101000a900473ffffffffffffffffffffffffffffffffffffffff1673ffffffffffffffffffffffffffffffffffffffff1614159050919050565b505050565b505050565b6145e283836147bb565b6145ef6000848484614633565b61462e576040517f08c379a00000000000000000000000000000000000000000000000000000000081526004016146259061715b565b60405180910390fd5b505050565b60006146548473ffffffffffffffffffffffffffffffffffffffff16614995565b156147ae578373ffffffffffffffffffffffffffffffffffffffff1663150b7a0261467d6136d3565b8786866040518563ffffffff1660e01b815260040161469f949392919061745a565b6020604051808303816000875af19250505080156146db57506040513d601f19601f820116820180604052508101906146d891906174bb565b60015b61475e573d806000811461470b576040519150601f19603f3d011682016040523d82523d6000602084013e614710565b606091505b50600081511415614756576040517f08c379a000000000000000000000000000000000000000000000000000000000815260040161474d9061715b565b60405180910390fd5b805181602001fd5b63150b7a0260e01b7bffffffffffffffffffffffffffffffffffffffffffffffffffffffff1916817bffffffffffffffffffffffffffffffffffffffffffffffffffffffff1916149150506147b3565b600190505b949350505050565b600073ffffffffffffffffffffffffffffffffffffffff168273ffffffffffffffffffffffffffffffffffffffff16141561482b576040517f08c379a000000000000000000000000000000000000000000000000000000000815260040161482290617534565b60405180910390fd5b61483481614562565b15614874576040517f08c379a000000000000000000000000000000000000000000000000000000000815260040161486b906175a0565b60405180910390fd5b614880600083836145ce565b6001600360008473ffffffffffffffffffffffffffffffffffffffff1673ffffffffffffffffffffffffffffffffffffffff16815260200190815260200160002060008282546148d09190615b5a565b92505081905550816002600083815260200190815260200160002060006101000a81548173ffffffffffffffffffffffffffffffffffffffff021916908373ffffffffffffffffffffffffffffffffffffffff160217905550808273ffffffffffffffffffffffffffffffffffffffff16600073ffffffffffffffffffffffffffffffffffffffff167fddf252ad1be2c89b69c2b068fc378daa952ba7f163c4a11628f55a4df523b3ef60405160405180910390a4614991600083836145d3565b5050565b6000808273ffffffffffffffffffffffffffffffffffffffff163b119050919050565b8280546149c49061597b565b90600052602060002090601f0160209004810192826149e65760008555614a2d565b82601f106149ff57805160ff1916838001178555614a2d565b82800160010185558215614a2d579182015b82811115614a2c578251825591602001919060010190614a11565b5b509050614a3a9190614a9e565b5090565b828054828255906000526020600020908101928215614a8d579160200282015b82811115614a8c578251829080519060200190614a7c9291906149b8565b5091602001919060010190614a5e565b5b509050614a9a9190614abb565b5090565b5b80821115614ab7576000816000905550600101614a9f565b5090565b5b80821115614adb5760008181614ad29190614adf565b50600101614abc565b5090565b508054614aeb9061597b565b6000825580601f10614afd5750614b1c565b601f016020900490600052602060002090810190614b1b9190614a9e565b5b50565b6000604051905090565b600080fd5b600080fd5b60007fffffffff0000000000000000000000000000000000000000000000000000000082169050919050565b614b6881614b33565b8114614b7357600080fd5b50565b600081359050614b8581614b5f565b92915050565b600060208284031215614ba157614ba0614b29565b5b6000614baf84828501614b76565b91505092915050565b60008115159050919050565b614bcd81614bb8565b82525050565b6000602082019050614be86000830184614bc4565b92915050565b600081519050919050565b600082825260208201905092915050565b60005b83811015614c28578082015181840152602081019050614c0d565b83811115614c37576000848401525b50505050565b6000601f19601f8301169050919050565b6000614c5982614bee565b614c638185614bf9565b9350614c73818560208601614c0a565b614c7c81614c3d565b840191505092915050565b60006020820190508181036000830152614ca18184614c4e565b905092915050565b6000819050919050565b614cbc81614ca9565b8114614cc757600080fd5b50565b600081359050614cd981614cb3565b92915050565b600060208284031215614cf557614cf4614b29565b5b6000614d0384828501614cca565b91505092915050565b600073ffffffffffffffffffffffffffffffffffffffff82169050919050565b6000614d3782614d0c565b9050919050565b614d4781614d2c565b82525050565b6000602082019050614d626000830184614d3e565b92915050565b614d7181614d2c565b8114614d7c57600080fd5b50565b600081359050614d8e81614d68565b92915050565b60008060408385031215614dab57614daa614b29565b5b6000614db985828601614d7f565b9250506020614dca85828601614cca565b9150509250929050565b600080fd5b7f4e487b7100000000000000000000000000000000000000000000000000000000600052604160045260246000fd5b614e1182614c3d565b810181811067ffffffffffffffff82111715614e3057614e2f614dd9565b5b80604052505050565b6000614e43614b1f565b9050614e4f8282614e08565b919050565b600067ffffffffffffffff821115614e6f57614e6e614dd9565b5b602082029050602081019050919050565b600080fd5b600080fd5b600067ffffffffffffffff821115614ea557614ea4614dd9565b5b614eae82614c3d565b9050602081019050919050565b82818337600083830152505050565b6000614edd614ed884614e8a565b614e39565b905082815260208101848484011115614ef957614ef8614e85565b5b614f04848285614ebb565b509392505050565b600082601f830112614f2157614f20614dd4565b5b8135614f31848260208601614eca565b91505092915050565b6000614f4d614f4884614e54565b614e39565b90508083825260208201905060208402830185811115614f7057614f6f614e80565b5b835b81811015614fb757803567ffffffffffffffff811115614f9557614f94614dd4565b5b808601614fa28982614f0c565b85526020850194505050602081019050614f72565b5050509392505050565b600082601f830112614fd657614fd5614dd4565b5b8135614fe6848260208601614f3a565b91505092915050565b6000806000806080858703121561500957615008614b29565b5b600061501787828801614cca565b945050602085013567ffffffffffffffff81111561503857615037614b2e565b5b61504487828801614fc1565b935050604085013567ffffffffffffffff81111561506557615064614b2e565b5b61507187828801614f0c565b925050606085013567ffffffffffffffff81111561509257615091614b2e565b5b61509e87828801614f0c565b91505092959194509250565b600060408201905081810360008301526150c48185614c4e565b905081810360208301526150d88184614c4e565b90509392505050565b600080600080608085870312156150fb576150fa614b29565b5b600085013567ffffffffffffffff81111561511957615118614b2e565b5b61512587828801614f0c565b945050602085013567ffffffffffffffff81111561514657615145614b2e565b5b61515287828801614f0c565b935050604085013567ffffffffffffffff81111561517357615172614b2e565b5b61517f87828801614f0c565b925050606061519087828801614cca565b91505092959194509250565b600080600080608085870312156151b6576151b5614b29565b5b60006151c487828801614cca565b94505060206151d587828801614cca565b935050604085013567ffffffffffffffff8111156151f6576151f5614b2e565b5b61520287828801614fc1565b925050606085013567ffffffffffffffff81111561522357615222614b2e565b5b61522f87828801614fc1565b91505092959194509250565b60008060006060848603121561525457615253614b29565b5b600061526286828701614d7f565b935050602061527386828701614d7f565b925050604061528486828701614cca565b9150509250925092565b60008060008060008060c087890312156152ab576152aa614b29565b5b600087013567ffffffffffffffff8111156152c9576152c8614b2e565b5b6152d589828a01614f0c565b965050602087013567ffffffffffffffff8111156152f6576152f5614b2e565b5b61530289828a01614f0c565b955050604061531389828a01614cca565b945050606061532489828a01614cca565b935050608087013567ffffffffffffffff81111561534557615344614b2e565b5b61535189828a01614fc1565b92505060a087013567ffffffffffffffff81111561537257615371614b2e565b5b61537e89828a01614fc1565b9150509295509295509295565b6000602082840312156153a1576153a0614b29565b5b60006153af84828501614d7f565b91505092915050565b6153c181614ca9565b82525050565b60006020820190506153dc60008301846153b8565b92915050565b600060a08201905081810360008301526153fc8188614c4e565b905081810360208301526154108187614c4e565b905081810360408301526154248186614c4e565b905061543360608301856153b8565b61544060808301846153b8565b9695505050505050565b600060408201905061545f60008301856153b8565b61546c60208301846153b8565b9392505050565b61547c81614bb8565b811461548757600080fd5b50565b60008135905061549981615473565b92915050565b600080604083850312156154b6576154b5614b29565b5b60006154c485828601614d7f565b92505060206154d58582860161548a565b9150509250929050565b600067ffffffffffffffff8211156154fa576154f9614dd9565b5b61550382614c3d565b9050602081019050919050565b600061552361551e846154df565b614e39565b90508281526020810184848401111561553f5761553e614e85565b5b61554a848285614ebb565b509392505050565b600082601f83011261556757615566614dd4565b5b8135615577848260208601615510565b91505092915050565b6000806000806080858703121561559a57615599614b29565b5b60006155a887828801614d7f565b94505060206155b987828801614d7f565b93505060406155ca87828801614cca565b925050606085013567ffffffffffffffff8111156155eb576155ea614b2e565b5b6155f787828801615552565b91505092959194509250565b6000806040838503121561561a57615619614b29565b5b600061562885828601614cca565b925050602061563985828601614cca565b9150509250929050565b60008060006060848603121561565c5761565b614b29565b5b600084013567ffffffffffffffff81111561567a57615679614b2e565b5b61568686828701614f0c565b935050602061569786828701614cca565b925050604084013567ffffffffffffffff8111156156b8576156b7614b2e565b5b6156c486828701614fc1565b9150509250925092565b600080604083850312156156e5576156e4614b29565b5b60006156f385828601614d7f565b925050602061570485828601614d7f565b9150509250929050565b600060c08201905081810360008301526157288189614c4e565b9050818103602083015261573c8188614c4e565b905081810360408301526157508187614c4e565b905081810360608301526157648186614c4e565b905061577360808301856153b8565b61578060a08301846153b8565b979650505050505050565b600081519050919050565b600082825260208201905092915050565b6000819050602082019050919050565b600082825260208201905092915050565b60006157d382614bee565b6157dd81856157b7565b93506157ed818560208601614c0a565b6157f681614c3d565b840191505092915050565b61580a81614ca9565b82525050565b600060a083016000830151848203600086015261582d82826157c8565b9150506020830151848203602086015261584782826157c8565b9150506040830151848203604086015261586182826157c8565b91505060608301516158766060860182615801565b5060808301516158896080860182615801565b508091505092915050565b60006158a08383615810565b905092915050565b6000602082019050919050565b60006158c08261578b565b6158ca8185615796565b9350836020820285016158dc856157a7565b8060005b8581101561591857848403895281516158f98582615894565b9450615904836158a8565b925060208a019950506001810190506158e0565b50829750879550505050505092915050565b6000602082019050818103600083015261594481846158b5565b905092915050565b7f4e487b7100000000000000000000000000000000000000000000000000000000600052602260045260246000fd5b6000600282049050600182168061599357607f821691505b602082108114156159a7576159a661594c565b5b50919050565b7f4552433732313a20617070726f76616c20746f2063757272656e74206f776e6560008201527f7200000000000000000000000000000000000000000000000000000000000000602082015250565b6000615a09602183614bf9565b9150615a14826159ad565b604082019050919050565b60006020820190508181036000830152615a38816159fc565b9050919050565b7f4552433732313a20617070726f76652063616c6c6572206973206e6f7420746f60008201527f6b656e206f776e6572206e6f7220617070726f76656420666f7220616c6c0000602082015250565b6000615a9b603e83614bf9565b9150615aa682615a3f565b604082019050919050565b60006020820190508181036000830152615aca81615a8e565b9050919050565b7f4e487b7100000000000000000000000000000000000000000000000000000000600052601160045260246000fd5b6000615b0b82614ca9565b9150615b1683614ca9565b9250817fffffffffffffffffffffffffffffffffffffffffffffffffffffffffffffffff0483118215151615615b4f57615b4e615ad1565b5b828202905092915050565b6000615b6582614ca9565b9150615b7083614ca9565b9250827fffffffffffffffffffffffffffffffffffffffffffffffffffffffffffffffff03821115615ba557615ba4615ad1565b5b828201905092915050565b7f4e487b7100000000000000000000000000000000000000000000000000000000600052603260045260246000fd5b600081905092915050565b6000615bf582614bee565b615bff8185615bdf565b9350615c0f818560208601614c0a565b80840191505092915050565b7f766e202d00000000000000000000000000000000000000000000000000000000815250565b7f2000000000000000000000000000000000000000000000000000000000000000815250565b7f0a00000000000000000000000000000000000000000000000000000000000000815250565b6000615c998287615bea565b9150615ca482615c1b565b600482019150615cb48286615bea565b9150615cbf82615c41565b600182019150615ccf8285615bea565b9150615cda82615c41565b600182019150615cea8284615bea565b9150615cf582615c67565b60018201915081905095945050505050565b7f202d000000000000000000000000000000000000000000000000000000000000815250565b6000615d398287615bea565b9150615d4482615c1b565b600482019150615d548286615bea565b9150615d5f82615d07565b600282019150615d6f8285615bea565b9150615d7a82615c41565b600182019150615d8a8284615bea565b9150615d9582615c67565b60018201915081905095945050505050565b6000615db282614ca9565b91507fffffffffffffffffffffffffffffffffffffffffffffffffffffffffffffffff821415615de557615de4615ad1565b5b600182019050919050565b6000615dfc8287615bea565b9150615e0782615c1b565b600482019150615e178286615bea565b9150615e2282615c41565b600182019150615e328285615bea565b9150615e3d82615d07565b600282019150615e4d8284615bea565b9150615e5882615c67565b60018201915081905095945050505050565b6000615e768287615bea565b9150615e8182615c1b565b600482019150615e918286615bea565b9150615e9c82615d07565b600282019150615eac8285615bea565b9150615eb782615d07565b600282019150615ec78284615bea565b9150615ed282615c67565b60018201915081905095945050505050565b7f766e200000000000000000000000000000000000000000000000000000000000815250565b6000615f168287615bea565b9150615f2182615ee4565b600382019150615f318286615bea565b9150615f3c82615c41565b600182019150615f4c8285615bea565b9150615f5782615d07565b600282019150615f678284615bea565b9150615f7282615c67565b60018201915081905095945050505050565b6000615f908287615bea565b9150615f9b82615ee4565b600382019150615fab8286615bea565b9150615fb682615d07565b600282019150615fc68285615bea565b9150615fd182615d07565b600282019150615fe18284615bea565b9150615fec82615c67565b60018201915081905095945050505050565b7f4552433732313a2063616c6c6572206973206e6f7420746f6b656e206f776e6560008201527f72206e6f7220617070726f766564000000000000000000000000000000000000602082015250565b600061605a602e83614bf9565b915061606582615ffe565b604082019050919050565b600060208201905081810360008301526160898161604d565b9050919050565b600061609c8285615bea565b91506160a88284615bea565b91508190509392505050565b7f3c2f746578743e3c2f7376673e00000000000000000000000000000000000000600082015250565b60006160ea600d83615bdf565b91506160f5826160b4565b600d82019050919050565b600061610c8285615bea565b91506161188284615bea565b9150616123826160dd565b91508190509392505050565b7f7b226e616d65223a202200000000000000000000000000000000000000000000600082015250565b6000616165600a83615bdf565b91506161708261612f565b600a82019050919050565b7f222c20226465736372697074696f6e223a000000000000000000000000000000600082015250565b60006161b1601183615bdf565b91506161bc8261617b565b601182019050919050565b7f2c2022696d616765223a2022646174613a696d6167652f7376672b786d6c3b6260008201527f61736536342c0000000000000000000000000000000000000000000000000000602082015250565b6000616223602683615bdf565b915061622e826161c7565b602682019050919050565b7f227d000000000000000000000000000000000000000000000000000000000000600082015250565b600061626f600283615bdf565b915061627a82616239565b600282019050919050565b600061629082616158565b915061629c8286615bea565b91506162a7826161a4565b91506162b38285615bea565b91506162be82616216565b91506162ca8284615bea565b91506162d582616262565b9150819050949350505050565b7f4552433732313a20696e76616c696420746f6b656e2049440000000000000000600082015250565b6000616318601883614bf9565b9150616323826162e2565b602082019050919050565b600060208201905081810360008301526163478161630b565b9050919050565b7f4552433732313a2061646472657373207a65726f206973206e6f74206120766160008201527f6c6964206f776e65720000000000000000000000000000000000000000000000602082015250565b60006163aa602983614bf9565b91506163b58261634e565b604082019050919050565b600060208201905081810360008301526163d98161639d565b9050919050565b7f76202d0000000000000000000000000000000000000000000000000000000000815250565b60006164128287615bea565b915061641d826163e0565b60038201915061642d8286615bea565b915061643882615c41565b6001820191506164488285615bea565b915061645382615c41565b6001820191506164638284615bea565b915061646e82615c67565b60018201915081905095945050505050565b600061648c8287615bea565b9150616497826163e0565b6003820191506164a78286615bea565b91506164b282615d07565b6002820191506164c28285615bea565b91506164cd82615c41565b6001820191506164dd8284615bea565b91506164e882615c67565b60018201915081905095945050505050565b600061650582614ca9565b9150600082141561651957616518615ad1565b5b600182039050919050565b7f302e300000000000000000000000000000000000000000000000000000000000600082015250565b600061655a600383615bdf565b915061656582616524565b600382019050919050565b600061657b8261654d565b9150819050919050565b60006165918284615bea565b915081905092915050565b60006165a88287615bea565b91506165b3826163e0565b6003820191506165c38286615bea565b91506165ce82615c41565b6001820191506165de8285615bea565b91506165e982615d07565b6002820191506165f98284615bea565b915061660482615c67565b60018201915081905095945050505050565b60006166228287615bea565b915061662d826163e0565b60038201915061663d8286615bea565b915061664882615d07565b6002820191506166588285615bea565b915061666382615d07565b6002820191506166738284615bea565b915061667e82615c67565b60018201915081905095945050505050565b7f7620000000000000000000000000000000000000000000000000000000000000815250565b60006166c28287615bea565b91506166cd82616690565b6002820191506166dd8286615bea565b91506166e882615c41565b6001820191506166f88285615bea565b915061670382615d07565b6002820191506167138284615bea565b915061671e82615c67565b60018201915081905095945050505050565b600061673c8287615bea565b915061674782616690565b6002820191506167578286615bea565b915061676282615d07565b6002820191506167728285615bea565b915061677d82615d07565b60028201915061678d8284615bea565b915061679882615c67565b60018201915081905095945050505050565b7f6620000000000000000000000000000000000000000000000000000000000000815250565b7f2f00000000000000000000000000000000000000000000000000000000000000815250565b7f20312f0000000000000000000000000000000000000000000000000000000000815250565b6000616828828c615bea565b9150616833826167aa565b600282019150616843828b615bea565b915061684e826167d0565b60018201915061685e828a615bea565b9150616869826167d0565b6001820191506168798289615bea565b9150616884826167f6565b6003820191506168948288615bea565b915061689f826167d0565b6001820191506168af8287615bea565b91506168ba82615c41565b6001820191506168ca8286615bea565b91506168d5826167d0565b6001820191506168e58285615bea565b91506168f0826167d0565b6001820191506169008284615bea565b915061690b82615c67565b6001820191508190509a9950505050505050505050565b600061692d82614ca9565b915061693883614ca9565b92508282101561694b5761694a615ad1565b5b828203905092915050565b7f2036322f00000000000000000000000000000000000000000000000000000000815250565b6000616988828c615bea565b9150616993826167aa565b6002820191506169a3828b615bea565b91506169ae826167d0565b6001820191506169be828a615bea565b91506169c9826167d0565b6001820191506169d98289615bea565b91506169e482616956565b6004820191506169f48288615bea565b91506169ff826167d0565b600182019150616a0f8287615bea565b9150616a1a82615c41565b600182019150616a2a8286615bea565b9150616a35826167d0565b600182019150616a458285615bea565b9150616a50826167d0565b600182019150616a608284615bea565b9150616a6b82615c67565b6001820191508190509a9950505050505050505050565b7f4e487b7100000000000000000000000000000000000000000000000000000000600052601260045260246000fd5b6000616abc82614ca9565b9150616ac783614ca9565b925082616ad757616ad6616a82565b5b828206905092915050565b6000616aee828a615bea565b9150616af9826167aa565b600282019150616b098289615bea565b9150616b14826167d0565b600182019150616b248288615bea565b9150616b2f826167d0565b600182019150616b3f8287615bea565b9150616b4a82615c41565b600182019150616b5a8286615bea565b9150616b65826167d0565b600182019150616b758285615bea565b9150616b80826167d0565b600182019150616b908284615bea565b915081905098975050505050505050565b6000616bad828a615bea565b9150616bb882615c41565b600182019150616bc88289615bea565b9150616bd3826167d0565b600182019150616be38288615bea565b9150616bee826167d0565b600182019150616bfe8287615bea565b9150616c0982615c41565b600182019150616c198286615bea565b9150616c24826167d0565b600182019150616c348285615bea565b9150616c3f826167d0565b600182019150616c4f8284615bea565b9150616c5a82615c67565b60018201915081905098975050505050505050565b6000616c7a82614ca9565b9150616c8583614ca9565b925082616c9557616c94616a82565b5b828204905092915050565b6000616cac8288615bea565b9150616cb88287615bea565b9150616cc382615c41565b600182019150616cd38286615bea565b9150616cde82615c41565b600182019150616cee8285615bea565b9150616cf982615c41565b600182019150616d098284615bea565b9150616d1482615c67565b6001820191508190509695505050505050565b6000616d338287615bea565b9150616d3e82615c41565b600182019150616d4e8286615bea565b9150616d5982615d07565b600282019150616d698285615bea565b9150616d7482615c41565b600182019150616d848284615bea565b9150616d8f82615c67565b60018201915081905095945050505050565b6000616dad8288615bea565b9150616db98287615bea565b9150616dc482615c41565b600182019150616dd48286615bea565b9150616ddf82615d07565b600282019150616def8285615bea565b9150616dfa82615c41565b600182019150616e0a8284615bea565b9150616e1582615c67565b6001820191508190509695505050505050565b7f7600000000000000000000000000000000000000000000000000000000000000600082015250565b6000616e5e600183615bdf565b9150616e6982616e28565b600182019050919050565b6000616e7f82616e51565b9150819050919050565b7f4552433732313a207472616e736665722066726f6d20696e636f72726563742060008201527f6f776e6572000000000000000000000000000000000000000000000000000000602082015250565b6000616ee5602583614bf9565b9150616ef082616e89565b604082019050919050565b60006020820190508181036000830152616f1481616ed8565b9050919050565b7f4552433732313a207472616e7366657220746f20746865207a65726f2061646460008201527f7265737300000000000000000000000000000000000000000000000000000000602082015250565b6000616f77602483614bf9565b9150616f8282616f1b565b604082019050919050565b60006020820190508181036000830152616fa681616f6a565b9050919050565b7f45524337323155524953746f726167653a2055524920736574206f66206e6f6e60008201527f6578697374656e7420746f6b656e000000000000000000000000000000000000602082015250565b6000617009602e83614bf9565b915061701482616fad565b604082019050919050565b6000602082019050818103600083015261703881616ffc565b9050919050565b600060608201905081810360008301526170598186614c4e565b905061706860208301856153b8565b6170756040830184614d3e565b949350505050565b7f4552433732313a20617070726f766520746f2063616c6c657200000000000000600082015250565b60006170b3601983614bf9565b91506170be8261707d565b602082019050919050565b600060208201905081810360008301526170e2816170a6565b9050919050565b7f4552433732313a207472616e7366657220746f206e6f6e20455243373231526560008201527f63656976657220696d706c656d656e7465720000000000000000000000000000602082015250565b6000617145603283614bf9565b9150617150826170e9565b604082019050919050565b6000602082019050818103600083015261717481617138565b9050919050565b7f54686520737065636966696564206e756d626572206f66206469766973696f6e60008201527f73206973206e6f7420726567697374657265642e000000000000000000000000602082015250565b60006171d7603483614bf9565b91506171e28261717b565b604082019050919050565b60006020820190508181036000830152617206816171ca565b9050919050565b7f76202d30203120300a0000000000000000000000000000000000000000000000815250565b7f762030202d3120300a0000000000000000000000000000000000000000000000815250565b60006172648261720d565b6009820191506172748284615bea565b915061727f82617233565b60098201915081905092915050565b7f2320426c656e6465722076332e322e32204f424a2046696c653a2027270a232060008201527f7777772e626c656e6465722e6f72670a6d746c6c6962207370686572655f313260208201527f5f362e6d746c0a6f20e790835fe790832e3030310a0000000000000000000000604082015250565b6000617310605583615bdf565b915061731b8261728e565b605582019050919050565b7f7573656d746c204e6f6e650a73206f66660a0000000000000000000000000000815250565b600061735782617303565b91506173638286615bea565b915061736f8285615bea565b915061737a82617326565b60128201915061738a8284615bea565b9150819050949350505050565b7f646174613a6d6f64656c2f6f626a2c0000000000000000000000000000000000600082015250565b60006173cd600f83615bdf565b91506173d882617397565b600f82019050919050565b60006173ee826173c0565b91506173fa8284615bea565b915081905092915050565b600081519050919050565b600082825260208201905092915050565b600061742c82617405565b6174368185617410565b9350617446818560208601614c0a565b61744f81614c3d565b840191505092915050565b600060808201905061746f6000830187614d3e565b61747c6020830186614d3e565b61748960408301856153b8565b818103606083015261749b8184617421565b905095945050505050565b6000815190506174b581614b5f565b92915050565b6000602082840312156174d1576174d0614b29565b5b60006174df848285016174a6565b91505092915050565b7f4552433732313a206d696e7420746f20746865207a65726f2061646472657373600082015250565b600061751e602083614bf9565b9150617529826174e8565b602082019050919050565b6000602082019050818103600083015261754d81617511565b9050919050565b7f4552433732313a20746f6b656e20616c7265616479206d696e74656400000000600082015250565b600061758a601c83614bf9565b915061759582617554565b602082019050919050565b600060208201905081810360008301526175b98161757d565b905091905056fe416e204e465420772f20494420257320686173206265656e206d696e74656420746f2025734142434445464748494a4b4c4d4e4f505152535455565758595a6162636465666768696a6b6c6d6e6f707172737475767778797a303132333435363738392b2fa2646970667358221220767e936cb214adb3331fb030f19aca2d873c93077291239465368aaaa0a32a9564736f6c634300080c00333c73766720786d6c6e733d27687474703a2f2f7777772e77332e6f72672f323030302f73766727207072657365727665417370656374526174696f3d27784d696e594d696e206d656574272076696577426f783d273020302033353020333530273e3c7374796c653e2e62617365207b2066696c6c3a20234638463546353b20666f6e742d66616d696c793a202747656f726769612c207365726966273b20666f6e742d73697a653a20323470783b207d3c2f7374796c653e3c726563742077696474683d273130302527206865696768743d2731303025272066696c6c3d272333464330413127202f3e3c7465787420783d273530252720793d273530252720636c6173734e616d653d27626173652720646f6d696e616e742d626173656c696e653d276d6964646c652720746578742d616e63686f723d276d6964646c65273e",
  "linkReferences": {},
  "deployedLinkReferences": {}
}