{
  "_format": "hh-sol-artifact-1",
  "contractName": "MintNft",
  "sourceName": "contracts/MintNft.sol",
  "abi": [
    {
      "inputs": [],
      "stateMutability": "nonpayable",
      "type": "constructor"
    },
    {
      "anonymous": false,
      "inputs": [
        {
          "indexed": true,
          "internalType": "address",
          "name": "owner",
          "type": "address"
        },
        {
          "indexed": true,
          "internalType": "address",
          "name": "approved",
          "type": "address"
        },
        {
          "indexed": true,
          "internalType": "uint256",
          "name": "tokenId",
          "type": "uint256"
        }
      ],
      "name": "Approval",
      "type": "event"
    },
    {
      "anonymous": false,
      "inputs": [
        {
          "indexed": true,
          "internalType": "address",
          "name": "owner",
          "type": "address"
        },
        {
          "indexed": true,
          "internalType": "address",
          "name": "operator",
          "type": "address"
        },
        {
          "indexed": false,
          "internalType": "bool",
          "name": "approved",
          "type": "bool"
        }
      ],
      "name": "ApprovalForAll",
      "type": "event"
    },
    {
      "anonymous": false,
      "inputs": [
        {
          "indexed": true,
          "internalType": "address",
          "name": "from",
          "type": "address"
        },
        {
          "indexed": true,
          "internalType": "address",
          "name": "to",
          "type": "address"
        },
        {
          "indexed": true,
          "internalType": "uint256",
          "name": "tokenId",
          "type": "uint256"
        }
      ],
      "name": "Transfer",
      "type": "event"
    },
    {
      "inputs": [
        {
          "internalType": "address",
          "name": "to",
          "type": "address"
        },
        {
          "internalType": "uint256",
          "name": "tokenId",
          "type": "uint256"
        }
      ],
      "name": "approve",
      "outputs": [],
      "stateMutability": "nonpayable",
      "type": "function"
    },
    {
      "inputs": [
        {
          "internalType": "address",
          "name": "owner",
          "type": "address"
        }
      ],
      "name": "balanceOf",
      "outputs": [
        {
          "internalType": "uint256",
          "name": "",
          "type": "uint256"
        }
      ],
      "stateMutability": "view",
      "type": "function"
    },
    {
      "inputs": [
        {
          "internalType": "uint256",
          "name": "tokenId",
          "type": "uint256"
        }
      ],
      "name": "getApproved",
      "outputs": [
        {
          "internalType": "address",
          "name": "",
          "type": "address"
        }
      ],
      "stateMutability": "view",
      "type": "function"
    },
    {
      "inputs": [
        {
          "internalType": "string",
          "name": "_name",
          "type": "string"
        },
        {
          "internalType": "string",
          "name": "_description",
          "type": "string"
        },
        {
          "internalType": "uint256",
          "name": "divNumHorizontal",
          "type": "uint256"
        },
        {
          "internalType": "uint256",
          "name": "divNumVertical",
          "type": "uint256"
        },
        {
          "internalType": "string[]",
          "name": "baseVVector",
          "type": "string[]"
        },
        {
          "internalType": "string[]",
          "name": "baseVnVector",
          "type": "string[]"
        }
      ],
      "name": "ghostNftMint",
      "outputs": [],
      "stateMutability": "nonpayable",
      "type": "function"
    },
    {
      "inputs": [
        {
          "internalType": "address",
          "name": "owner",
          "type": "address"
        },
        {
          "internalType": "address",
          "name": "operator",
          "type": "address"
        }
      ],
      "name": "isApprovedForAll",
      "outputs": [
        {
          "internalType": "bool",
          "name": "",
          "type": "bool"
        }
      ],
      "stateMutability": "view",
      "type": "function"
    },
    {
      "inputs": [],
      "name": "name",
      "outputs": [
        {
          "internalType": "string",
          "name": "",
          "type": "string"
        }
      ],
      "stateMutability": "view",
      "type": "function"
    },
    {
      "inputs": [
        {
          "internalType": "uint256",
          "name": "tokenId",
          "type": "uint256"
        }
      ],
      "name": "ownerOf",
      "outputs": [
        {
          "internalType": "address",
          "name": "",
          "type": "address"
        }
      ],
      "stateMutability": "view",
      "type": "function"
    },
    {
      "inputs": [
        {
          "internalType": "address",
          "name": "from",
          "type": "address"
        },
        {
          "internalType": "address",
          "name": "to",
          "type": "address"
        },
        {
          "internalType": "uint256",
          "name": "tokenId",
          "type": "uint256"
        }
      ],
      "name": "safeTransferFrom",
      "outputs": [],
      "stateMutability": "nonpayable",
      "type": "function"
    },
    {
      "inputs": [
        {
          "internalType": "address",
          "name": "from",
          "type": "address"
        },
        {
          "internalType": "address",
          "name": "to",
          "type": "address"
        },
        {
          "internalType": "uint256",
          "name": "tokenId",
          "type": "uint256"
        },
        {
          "internalType": "bytes",
          "name": "data",
          "type": "bytes"
        }
      ],
      "name": "safeTransferFrom",
      "outputs": [],
      "stateMutability": "nonpayable",
      "type": "function"
    },
    {
      "inputs": [
        {
          "internalType": "address",
          "name": "operator",
          "type": "address"
        },
        {
          "internalType": "bool",
          "name": "approved",
          "type": "bool"
        }
      ],
      "name": "setApprovalForAll",
      "outputs": [],
      "stateMutability": "nonpayable",
      "type": "function"
    },
    {
      "inputs": [
        {
          "internalType": "bytes4",
          "name": "interfaceId",
          "type": "bytes4"
        }
      ],
      "name": "supportsInterface",
      "outputs": [
        {
          "internalType": "bool",
          "name": "",
          "type": "bool"
        }
      ],
      "stateMutability": "view",
      "type": "function"
    },
    {
      "inputs": [],
      "name": "symbol",
      "outputs": [
        {
          "internalType": "string",
          "name": "",
          "type": "string"
        }
      ],
      "stateMutability": "view",
      "type": "function"
    },
    {
      "inputs": [
        {
          "internalType": "uint256",
          "name": "tokenId",
          "type": "uint256"
        }
      ],
      "name": "tokenURI",
      "outputs": [
        {
          "internalType": "string",
          "name": "",
          "type": "string"
        }
      ],
      "stateMutability": "view",
      "type": "function"
    },
    {
      "inputs": [
        {
          "internalType": "address",
          "name": "from",
          "type": "address"
        },
        {
          "internalType": "address",
          "name": "to",
          "type": "address"
        },
        {
          "internalType": "uint256",
          "name": "tokenId",
          "type": "uint256"
        }
      ],
      "name": "transferFrom",
      "outputs": [],
      "stateMutability": "nonpayable",
      "type": "function"
    }
  ],
  "bytecode": "0x60806040526040518061018001604052806101428152602001620036d36101429139600890805190602001906200003892919062000204565b503480156200004657600080fd5b506040518060400160405280600881526020017f47686f73744e46540000000000000000000000000000000000000000000000008152506040518060400160405280600581526020017f47484f53540000000000000000000000000000000000000000000000000000008152508160009080519060200190620000cb92919062000204565b508060019080519060200190620000e492919062000204565b505050620001326040518060400160405280600f81526020017f4372656174652047686f73744e465400000000000000000000000000000000008152506200013860201b62000ce41760201c565b620003e1565b620001d8816040516024016200014f919062000358565b6040516020818303038152906040527f41304fac000000000000000000000000000000000000000000000000000000007bffffffffffffffffffffffffffffffffffffffffffffffffffffffff19166020820180517bffffffffffffffffffffffffffffffffffffffffffffffffffffffff8381831617835250505050620001db60201b60201c565b50565b60008151905060006a636f6e736f6c652e6c6f679050602083016000808483855afa5050505050565b8280546200021290620003ab565b90600052602060002090601f01602090048101928262000236576000855562000282565b82601f106200025157805160ff191683800117855562000282565b8280016001018555821562000282579182015b828111156200028157825182559160200191906001019062000264565b5b50905062000291919062000295565b5090565b5b80821115620002b057600081600090555060010162000296565b5090565b600081519050919050565b600082825260208201905092915050565b60005b83811015620002f0578082015181840152602081019050620002d3565b8381111562000300576000848401525b50505050565b6000601f19601f8301169050919050565b60006200032482620002b4565b620003308185620002bf565b935062000342818560208601620002d0565b6200034d8162000306565b840191505092915050565b6000602082019050818103600083015262000374818462000317565b905092915050565b7f4e487b7100000000000000000000000000000000000000000000000000000000600052602260045260246000fd5b60006002820490506001821680620003c457607f821691505b60208210811415620003db57620003da6200037c565b5b50919050565b6132e280620003f16000396000f3fe608060405234801561001057600080fd5b50600436106100ea5760003560e01c80636352211e1161008c578063a22cb46511610066578063a22cb4651461025b578063b88d4fde14610277578063c87b56dd14610293578063e985e9c5146102c3576100ea565b80636352211e146101dd57806370a082311461020d57806395d89b411461023d576100ea565b8063095ea7b3116100c8578063095ea7b31461016d57806323b872dd1461018957806342842e0e146101a55780635f65c50e146101c1576100ea565b806301ffc9a7146100ef57806306fdde031461011f578063081812fc1461013d575b600080fd5b61010960048036038101906101049190611e00565b6102f3565b6040516101169190611e48565b60405180910390f35b6101276103d5565b6040516101349190611efc565b60405180910390f35b61015760048036038101906101529190611f54565b610467565b6040516101649190611fc2565b60405180910390f35b61018760048036038101906101829190612009565b6104ad565b005b6101a3600480360381019061019e9190612049565b6105c5565b005b6101bf60048036038101906101ba9190612049565b610625565b005b6101db60048036038101906101d691906122b7565b610645565b005b6101f760048036038101906101f29190611f54565b6108c9565b6040516102049190611fc2565b60405180910390f35b610227600480360381019061022291906123b4565b61097b565b60405161023491906123f0565b60405180910390f35b610245610a33565b6040516102529190611efc565b60405180910390f35b61027560048036038101906102709190612437565b610ac5565b005b610291600480360381019061028c9190612518565b610adb565b005b6102ad60048036038101906102a89190611f54565b610b3d565b6040516102ba9190611efc565b60405180910390f35b6102dd60048036038101906102d8919061259b565b610c50565b6040516102ea9190611e48565b60405180910390f35b60007f80ac58cd000000000000000000000000000000000000000000000000000000007bffffffffffffffffffffffffffffffffffffffffffffffffffffffff1916827bffffffffffffffffffffffffffffffffffffffffffffffffffffffff191614806103be57507f5b5e139f000000000000000000000000000000000000000000000000000000007bffffffffffffffffffffffffffffffffffffffffffffffffffffffff1916827bffffffffffffffffffffffffffffffffffffffffffffffffffffffff1916145b806103ce57506103cd82610d7d565b5b9050919050565b6060600080546103e49061260a565b80601f01602080910402602001604051908101604052809291908181526020018280546104109061260a565b801561045d5780601f106104325761010080835404028352916020019161045d565b820191906000526020600020905b81548152906001019060200180831161044057829003601f168201915b5050505050905090565b600061047282610de7565b6004600083815260200190815260200160002060009054906101000a900473ffffffffffffffffffffffffffffffffffffffff169050919050565b60006104b8826108c9565b90508073ffffffffffffffffffffffffffffffffffffffff168373ffffffffffffffffffffffffffffffffffffffff161415610529576040517f08c379a0000000000000000000000000000000000000000000000000000000008152600401610520906126ae565b60405180910390fd5b8073ffffffffffffffffffffffffffffffffffffffff16610548610e32565b73ffffffffffffffffffffffffffffffffffffffff161480610577575061057681610571610e32565b610c50565b5b6105b6576040517f08c379a00000000000000000000000000000000000000000000000000000000081526004016105ad90612740565b60405180910390fd5b6105c08383610e3a565b505050565b6105d66105d0610e32565b82610ef3565b610615576040517f08c379a000000000000000000000000000000000000000000000000000000000815260040161060c906127d2565b60405180910390fd5b610620838383610f88565b505050565b61064083838360405180602001604052806000815250610adb565b505050565b600061065160076111ef565b90506000600880546106629061260a565b80601f016020809104026020016040519081016040528092919081815260200182805461068e9061260a565b80156106db5780601f106106b0576101008083540402835291602001916106db565b820191906000526020600020905b8154815290600101906020018083116106be57829003601f168201915b5050505050905060606106ed876111fd565b6106f6876111fd565b60405160200161070792919061282e565b6040516020818303038152906040529050818160405160200161072b92919061289e565b604051602081830303815290604052915061077a6040518060400160405280601581526020017f0a2d2d2d2d2d205356472064617461202d2d2d2d2d0000000000000000000000815250610ce4565b61078382610ce4565b6107c16040518060400160405280601581526020017f2d2d2d2d2d2d2d2d2d2d2d2d2d2d2d2d2d2d2d2d0a0000000000000000000000815250610ce4565b60006107ef8a8a856040516020016107db93929190612a23565b60405160208183030381529060405261135e565b905060008390506108346040518060400160405280601581526020017f0a2d2d2d2d2d20546f6b656e20555249202d2d2d2d0000000000000000000000815250610ce4565b61083d81610ce4565b61087b6040518060400160405280601581526020017f2d2d2d2d2d2d2d2d2d2d2d2d2d2d2d2d2d2d2d2d0a0000000000000000000000815250610ce4565b61088533866114e3565b61088f8582611501565b6108b2604051806060016040528060258152602001613248602591398633611575565b6108bc6007611614565b5050505050505050505050565b6000806002600084815260200190815260200160002060009054906101000a900473ffffffffffffffffffffffffffffffffffffffff169050600073ffffffffffffffffffffffffffffffffffffffff168173ffffffffffffffffffffffffffffffffffffffff161415610972576040517f08c379a000000000000000000000000000000000000000000000000000000000815260040161096990612acc565b60405180910390fd5b80915050919050565b60008073ffffffffffffffffffffffffffffffffffffffff168273ffffffffffffffffffffffffffffffffffffffff1614156109ec576040517f08c379a00000000000000000000000000000000000000000000000000000000081526004016109e390612b5e565b60405180910390fd5b600360008373ffffffffffffffffffffffffffffffffffffffff1673ffffffffffffffffffffffffffffffffffffffff168152602001908152602001600020549050919050565b606060018054610a429061260a565b80601f0160208091040260200160405190810160405280929190818152602001828054610a6e9061260a565b8015610abb5780601f10610a9057610100808354040283529160200191610abb565b820191906000526020600020905b815481529060010190602001808311610a9e57829003601f168201915b5050505050905090565b610ad7610ad0610e32565b838361162a565b5050565b610aec610ae6610e32565b83610ef3565b610b2b576040517f08c379a0000000000000000000000000000000000000000000000000000000008152600401610b22906127d2565b60405180910390fd5b610b3784848484611797565b50505050565b6060610b4882610de7565b6000600660008481526020019081526020016000208054610b689061260a565b80601f0160208091040260200160405190810160405280929190818152602001828054610b949061260a565b8015610be15780601f10610bb657610100808354040283529160200191610be1565b820191906000526020600020905b815481529060010190602001808311610bc457829003601f168201915b505050505090506000610bf26117f3565b9050600081511415610c08578192505050610c4b565b600082511115610c3d578082604051602001610c2592919061282e565b60405160208183030381529060405292505050610c4b565b610c468461180a565b925050505b919050565b6000600560008473ffffffffffffffffffffffffffffffffffffffff1673ffffffffffffffffffffffffffffffffffffffff16815260200190815260200160002060008373ffffffffffffffffffffffffffffffffffffffff1673ffffffffffffffffffffffffffffffffffffffff16815260200190815260200160002060009054906101000a900460ff16905092915050565b610d7a81604051602401610cf89190611efc565b6040516020818303038152906040527f41304fac000000000000000000000000000000000000000000000000000000007bffffffffffffffffffffffffffffffffffffffffffffffffffffffff19166020820180517bffffffffffffffffffffffffffffffffffffffffffffffffffffffff8381831617835250505050611872565b50565b60007f01ffc9a7000000000000000000000000000000000000000000000000000000007bffffffffffffffffffffffffffffffffffffffffffffffffffffffff1916827bffffffffffffffffffffffffffffffffffffffffffffffffffffffff1916149050919050565b610df08161189b565b610e2f576040517f08c379a0000000000000000000000000000000000000000000000000000000008152600401610e2690612acc565b60405180910390fd5b50565b600033905090565b816004600083815260200190815260200160002060006101000a81548173ffffffffffffffffffffffffffffffffffffffff021916908373ffffffffffffffffffffffffffffffffffffffff160217905550808273ffffffffffffffffffffffffffffffffffffffff16610ead836108c9565b73ffffffffffffffffffffffffffffffffffffffff167f8c5be1e5ebec7d5bd14f71427d1e84f3dd0314c0f7b2291e5b200ac8c7c3b92560405160405180910390a45050565b600080610eff836108c9565b90508073ffffffffffffffffffffffffffffffffffffffff168473ffffffffffffffffffffffffffffffffffffffff161480610f415750610f408185610c50565b5b80610f7f57508373ffffffffffffffffffffffffffffffffffffffff16610f6784610467565b73ffffffffffffffffffffffffffffffffffffffff16145b91505092915050565b8273ffffffffffffffffffffffffffffffffffffffff16610fa8826108c9565b73ffffffffffffffffffffffffffffffffffffffff1614610ffe576040517f08c379a0000000000000000000000000000000000000000000000000000000008152600401610ff590612bf0565b60405180910390fd5b600073ffffffffffffffffffffffffffffffffffffffff168273ffffffffffffffffffffffffffffffffffffffff16141561106e576040517f08c379a000000000000000000000000000000000000000000000000000000000815260040161106590612c82565b60405180910390fd5b611079838383611907565b611084600082610e3a565b6001600360008573ffffffffffffffffffffffffffffffffffffffff1673ffffffffffffffffffffffffffffffffffffffff16815260200190815260200160002060008282546110d49190612cd1565b925050819055506001600360008473ffffffffffffffffffffffffffffffffffffffff1673ffffffffffffffffffffffffffffffffffffffff168152602001908152602001600020600082825461112b9190612d05565b92505081905550816002600083815260200190815260200160002060006101000a81548173ffffffffffffffffffffffffffffffffffffffff021916908373ffffffffffffffffffffffffffffffffffffffff160217905550808273ffffffffffffffffffffffffffffffffffffffff168473ffffffffffffffffffffffffffffffffffffffff167fddf252ad1be2c89b69c2b068fc378daa952ba7f163c4a11628f55a4df523b3ef60405160405180910390a46111ea83838361190c565b505050565b600081600001549050919050565b60606000821415611245576040518060400160405280600181526020017f30000000000000000000000000000000000000000000000000000000000000008152509050611359565b600082905060005b6000821461127757808061126090612d5b565b915050600a826112709190612dd3565b915061124d565b60008167ffffffffffffffff811115611293576112926120a6565b5b6040519080825280601f01601f1916602001820160405280156112c55781602001600182028036833780820191505090505b5090505b60008514611352576001826112de9190612cd1565b9150600a856112ed9190612e04565b60306112f99190612d05565b60f81b81838151811061130f5761130e612e35565b5b60200101907effffffffffffffffffffffffffffffffffffffffffffffffffffffffffffff1916908160001a905350600a8561134b9190612dd3565b94506112c9565b8093505050505b919050565b6060600082511415611381576040518060200160405280600081525090506114de565b600060405180606001604052806040815260200161326d60409139905060006003600285516113b09190612d05565b6113ba9190612dd3565b60046113c69190612e64565b905060006020826113d79190612d05565b67ffffffffffffffff8111156113f0576113ef6120a6565b5b6040519080825280601f01601f1916602001820160405280156114225781602001600182028036833780820191505090505b509050818152600183018586518101602084015b8183101561149d576003830192508251603f8160121c1685015160f81b8252600182019150603f81600c1c1685015160f81b8252600182019150603f8160061c1685015160f81b8252600182019150603f811685015160f81b825260018201915050611436565b6003895106600181146114b757600281146114c7576114d2565b613d3d60f01b60028303526114d2565b603d60f81b60018303525b50505050508093505050505b919050565b6114fd828260405180602001604052806000815250611911565b5050565b61150a8261189b565b611549576040517f08c379a000000000000000000000000000000000000000000000000000000000815260040161154090612f30565b60405180910390fd5b80600660008481526020019081526020016000209080519060200190611570929190611cf1565b505050565b61160f83838360405160240161158d93929190612f50565b6040516020818303038152906040527f1c7ec448000000000000000000000000000000000000000000000000000000007bffffffffffffffffffffffffffffffffffffffffffffffffffffffff19166020820180517bffffffffffffffffffffffffffffffffffffffffffffffffffffffff8381831617835250505050611872565b505050565b6001816000016000828254019250508190555050565b8173ffffffffffffffffffffffffffffffffffffffff168373ffffffffffffffffffffffffffffffffffffffff161415611699576040517f08c379a000000000000000000000000000000000000000000000000000000000815260040161169090612fda565b60405180910390fd5b80600560008573ffffffffffffffffffffffffffffffffffffffff1673ffffffffffffffffffffffffffffffffffffffff16815260200190815260200160002060008473ffffffffffffffffffffffffffffffffffffffff1673ffffffffffffffffffffffffffffffffffffffff16815260200190815260200160002060006101000a81548160ff0219169083151502179055508173ffffffffffffffffffffffffffffffffffffffff168373ffffffffffffffffffffffffffffffffffffffff167f17307eab39ab6107e8899845ad3d59bd9653f200f220920489ca2b5937696c318360405161178a9190611e48565b60405180910390a3505050565b6117a2848484610f88565b6117ae8484848461196c565b6117ed576040517f08c379a00000000000000000000000000000000000000000000000000000000081526004016117e49061306c565b60405180910390fd5b50505050565b606060405180602001604052806000815250905090565b606061181582610de7565b600061181f6117f3565b9050600081511161183f576040518060200160405280600081525061186a565b80611849846111fd565b60405160200161185a92919061282e565b6040516020818303038152906040525b915050919050565b60008151905060006a636f6e736f6c652e6c6f679050602083016000808483855afa5050505050565b60008073ffffffffffffffffffffffffffffffffffffffff166002600084815260200190815260200160002060009054906101000a900473ffffffffffffffffffffffffffffffffffffffff1673ffffffffffffffffffffffffffffffffffffffff1614159050919050565b505050565b505050565b61191b8383611af4565b611928600084848461196c565b611967576040517f08c379a000000000000000000000000000000000000000000000000000000000815260040161195e9061306c565b60405180910390fd5b505050565b600061198d8473ffffffffffffffffffffffffffffffffffffffff16611cce565b15611ae7578373ffffffffffffffffffffffffffffffffffffffff1663150b7a026119b6610e32565b8786866040518563ffffffff1660e01b81526004016119d894939291906130e1565b6020604051808303816000875af1925050508015611a1457506040513d601f19601f82011682018060405250810190611a119190613142565b60015b611a97573d8060008114611a44576040519150601f19603f3d011682016040523d82523d6000602084013e611a49565b606091505b50600081511415611a8f576040517f08c379a0000000000000000000000000000000000000000000000000000000008152600401611a869061306c565b60405180910390fd5b805181602001fd5b63150b7a0260e01b7bffffffffffffffffffffffffffffffffffffffffffffffffffffffff1916817bffffffffffffffffffffffffffffffffffffffffffffffffffffffff191614915050611aec565b600190505b949350505050565b600073ffffffffffffffffffffffffffffffffffffffff168273ffffffffffffffffffffffffffffffffffffffff161415611b64576040517f08c379a0000000000000000000000000000000000000000000000000000000008152600401611b5b906131bb565b60405180910390fd5b611b6d8161189b565b15611bad576040517f08c379a0000000000000000000000000000000000000000000000000000000008152600401611ba490613227565b60405180910390fd5b611bb960008383611907565b6001600360008473ffffffffffffffffffffffffffffffffffffffff1673ffffffffffffffffffffffffffffffffffffffff1681526020019081526020016000206000828254611c099190612d05565b92505081905550816002600083815260200190815260200160002060006101000a81548173ffffffffffffffffffffffffffffffffffffffff021916908373ffffffffffffffffffffffffffffffffffffffff160217905550808273ffffffffffffffffffffffffffffffffffffffff16600073ffffffffffffffffffffffffffffffffffffffff167fddf252ad1be2c89b69c2b068fc378daa952ba7f163c4a11628f55a4df523b3ef60405160405180910390a4611cca6000838361190c565b5050565b6000808273ffffffffffffffffffffffffffffffffffffffff163b119050919050565b828054611cfd9061260a565b90600052602060002090601f016020900481019282611d1f5760008555611d66565b82601f10611d3857805160ff1916838001178555611d66565b82800160010185558215611d66579182015b82811115611d65578251825591602001919060010190611d4a565b5b509050611d739190611d77565b5090565b5b80821115611d90576000816000905550600101611d78565b5090565b6000604051905090565b600080fd5b600080fd5b60007fffffffff0000000000000000000000000000000000000000000000000000000082169050919050565b611ddd81611da8565b8114611de857600080fd5b50565b600081359050611dfa81611dd4565b92915050565b600060208284031215611e1657611e15611d9e565b5b6000611e2484828501611deb565b91505092915050565b60008115159050919050565b611e4281611e2d565b82525050565b6000602082019050611e5d6000830184611e39565b92915050565b600081519050919050565b600082825260208201905092915050565b60005b83811015611e9d578082015181840152602081019050611e82565b83811115611eac576000848401525b50505050565b6000601f19601f8301169050919050565b6000611ece82611e63565b611ed88185611e6e565b9350611ee8818560208601611e7f565b611ef181611eb2565b840191505092915050565b60006020820190508181036000830152611f168184611ec3565b905092915050565b6000819050919050565b611f3181611f1e565b8114611f3c57600080fd5b50565b600081359050611f4e81611f28565b92915050565b600060208284031215611f6a57611f69611d9e565b5b6000611f7884828501611f3f565b91505092915050565b600073ffffffffffffffffffffffffffffffffffffffff82169050919050565b6000611fac82611f81565b9050919050565b611fbc81611fa1565b82525050565b6000602082019050611fd76000830184611fb3565b92915050565b611fe681611fa1565b8114611ff157600080fd5b50565b60008135905061200381611fdd565b92915050565b600080604083850312156120205761201f611d9e565b5b600061202e85828601611ff4565b925050602061203f85828601611f3f565b9150509250929050565b60008060006060848603121561206257612061611d9e565b5b600061207086828701611ff4565b935050602061208186828701611ff4565b925050604061209286828701611f3f565b9150509250925092565b600080fd5b600080fd5b7f4e487b7100000000000000000000000000000000000000000000000000000000600052604160045260246000fd5b6120de82611eb2565b810181811067ffffffffffffffff821117156120fd576120fc6120a6565b5b80604052505050565b6000612110611d94565b905061211c82826120d5565b919050565b600067ffffffffffffffff82111561213c5761213b6120a6565b5b61214582611eb2565b9050602081019050919050565b82818337600083830152505050565b600061217461216f84612121565b612106565b9050828152602081018484840111156121905761218f6120a1565b5b61219b848285612152565b509392505050565b600082601f8301126121b8576121b761209c565b5b81356121c8848260208601612161565b91505092915050565b600067ffffffffffffffff8211156121ec576121eb6120a6565b5b602082029050602081019050919050565b600080fd5b6000612215612210846121d1565b612106565b90508083825260208201905060208402830185811115612238576122376121fd565b5b835b8181101561227f57803567ffffffffffffffff81111561225d5761225c61209c565b5b80860161226a89826121a3565b8552602085019450505060208101905061223a565b5050509392505050565b600082601f83011261229e5761229d61209c565b5b81356122ae848260208601612202565b91505092915050565b60008060008060008060c087890312156122d4576122d3611d9e565b5b600087013567ffffffffffffffff8111156122f2576122f1611da3565b5b6122fe89828a016121a3565b965050602087013567ffffffffffffffff81111561231f5761231e611da3565b5b61232b89828a016121a3565b955050604061233c89828a01611f3f565b945050606061234d89828a01611f3f565b935050608087013567ffffffffffffffff81111561236e5761236d611da3565b5b61237a89828a01612289565b92505060a087013567ffffffffffffffff81111561239b5761239a611da3565b5b6123a789828a01612289565b9150509295509295509295565b6000602082840312156123ca576123c9611d9e565b5b60006123d884828501611ff4565b91505092915050565b6123ea81611f1e565b82525050565b600060208201905061240560008301846123e1565b92915050565b61241481611e2d565b811461241f57600080fd5b50565b6000813590506124318161240b565b92915050565b6000806040838503121561244e5761244d611d9e565b5b600061245c85828601611ff4565b925050602061246d85828601612422565b9150509250929050565b600067ffffffffffffffff821115612492576124916120a6565b5b61249b82611eb2565b9050602081019050919050565b60006124bb6124b684612477565b612106565b9050828152602081018484840111156124d7576124d66120a1565b5b6124e2848285612152565b509392505050565b600082601f8301126124ff576124fe61209c565b5b813561250f8482602086016124a8565b91505092915050565b6000806000806080858703121561253257612531611d9e565b5b600061254087828801611ff4565b945050602061255187828801611ff4565b935050604061256287828801611f3f565b925050606085013567ffffffffffffffff81111561258357612582611da3565b5b61258f878288016124ea565b91505092959194509250565b600080604083850312156125b2576125b1611d9e565b5b60006125c085828601611ff4565b92505060206125d185828601611ff4565b9150509250929050565b7f4e487b7100000000000000000000000000000000000000000000000000000000600052602260045260246000fd5b6000600282049050600182168061262257607f821691505b60208210811415612636576126356125db565b5b50919050565b7f4552433732313a20617070726f76616c20746f2063757272656e74206f776e6560008201527f7200000000000000000000000000000000000000000000000000000000000000602082015250565b6000612698602183611e6e565b91506126a38261263c565b604082019050919050565b600060208201905081810360008301526126c78161268b565b9050919050565b7f4552433732313a20617070726f76652063616c6c6572206973206e6f7420746f60008201527f6b656e206f776e6572206e6f7220617070726f76656420666f7220616c6c0000602082015250565b600061272a603e83611e6e565b9150612735826126ce565b604082019050919050565b600060208201905081810360008301526127598161271d565b9050919050565b7f4552433732313a2063616c6c6572206973206e6f7420746f6b656e206f776e6560008201527f72206e6f7220617070726f766564000000000000000000000000000000000000602082015250565b60006127bc602e83611e6e565b91506127c782612760565b604082019050919050565b600060208201905081810360008301526127eb816127af565b9050919050565b600081905092915050565b600061280882611e63565b61281281856127f2565b9350612822818560208601611e7f565b80840191505092915050565b600061283a82856127fd565b915061284682846127fd565b91508190509392505050565b7f3c2f746578743e3c2f7376673e00000000000000000000000000000000000000600082015250565b6000612888600d836127f2565b915061289382612852565b600d82019050919050565b60006128aa82856127fd565b91506128b682846127fd565b91506128c18261287b565b91508190509392505050565b7f7b226e616d65223a202200000000000000000000000000000000000000000000600082015250565b6000612903600a836127f2565b915061290e826128cd565b600a82019050919050565b7f222c20226465736372697074696f6e223a000000000000000000000000000000600082015250565b600061294f6011836127f2565b915061295a82612919565b601182019050919050565b7f2c2022696d616765223a2022646174613a696d6167652f7376672b786d6c3b6260008201527f61736536342c0000000000000000000000000000000000000000000000000000602082015250565b60006129c16026836127f2565b91506129cc82612965565b602682019050919050565b7f227d000000000000000000000000000000000000000000000000000000000000600082015250565b6000612a0d6002836127f2565b9150612a18826129d7565b600282019050919050565b6000612a2e826128f6565b9150612a3a82866127fd565b9150612a4582612942565b9150612a5182856127fd565b9150612a5c826129b4565b9150612a6882846127fd565b9150612a7382612a00565b9150819050949350505050565b7f4552433732313a20696e76616c696420746f6b656e2049440000000000000000600082015250565b6000612ab6601883611e6e565b9150612ac182612a80565b602082019050919050565b60006020820190508181036000830152612ae581612aa9565b9050919050565b7f4552433732313a2061646472657373207a65726f206973206e6f74206120766160008201527f6c6964206f776e65720000000000000000000000000000000000000000000000602082015250565b6000612b48602983611e6e565b9150612b5382612aec565b604082019050919050565b60006020820190508181036000830152612b7781612b3b565b9050919050565b7f4552433732313a207472616e736665722066726f6d20696e636f72726563742060008201527f6f776e6572000000000000000000000000000000000000000000000000000000602082015250565b6000612bda602583611e6e565b9150612be582612b7e565b604082019050919050565b60006020820190508181036000830152612c0981612bcd565b9050919050565b7f4552433732313a207472616e7366657220746f20746865207a65726f2061646460008201527f7265737300000000000000000000000000000000000000000000000000000000602082015250565b6000612c6c602483611e6e565b9150612c7782612c10565b604082019050919050565b60006020820190508181036000830152612c9b81612c5f565b9050919050565b7f4e487b7100000000000000000000000000000000000000000000000000000000600052601160045260246000fd5b6000612cdc82611f1e565b9150612ce783611f1e565b925082821015612cfa57612cf9612ca2565b5b828203905092915050565b6000612d1082611f1e565b9150612d1b83611f1e565b9250827fffffffffffffffffffffffffffffffffffffffffffffffffffffffffffffffff03821115612d5057612d4f612ca2565b5b828201905092915050565b6000612d6682611f1e565b91507fffffffffffffffffffffffffffffffffffffffffffffffffffffffffffffffff821415612d9957612d98612ca2565b5b600182019050919050565b7f4e487b7100000000000000000000000000000000000000000000000000000000600052601260045260246000fd5b6000612dde82611f1e565b9150612de983611f1e565b925082612df957612df8612da4565b5b828204905092915050565b6000612e0f82611f1e565b9150612e1a83611f1e565b925082612e2a57612e29612da4565b5b828206905092915050565b7f4e487b7100000000000000000000000000000000000000000000000000000000600052603260045260246000fd5b6000612e6f82611f1e565b9150612e7a83611f1e565b9250817fffffffffffffffffffffffffffffffffffffffffffffffffffffffffffffffff0483118215151615612eb357612eb2612ca2565b5b828202905092915050565b7f45524337323155524953746f726167653a2055524920736574206f66206e6f6e60008201527f6578697374656e7420746f6b656e000000000000000000000000000000000000602082015250565b6000612f1a602e83611e6e565b9150612f2582612ebe565b604082019050919050565b60006020820190508181036000830152612f4981612f0d565b9050919050565b60006060820190508181036000830152612f6a8186611ec3565b9050612f7960208301856123e1565b612f866040830184611fb3565b949350505050565b7f4552433732313a20617070726f766520746f2063616c6c657200000000000000600082015250565b6000612fc4601983611e6e565b9150612fcf82612f8e565b602082019050919050565b60006020820190508181036000830152612ff381612fb7565b9050919050565b7f4552433732313a207472616e7366657220746f206e6f6e20455243373231526560008201527f63656976657220696d706c656d656e7465720000000000000000000000000000602082015250565b6000613056603283611e6e565b915061306182612ffa565b604082019050919050565b6000602082019050818103600083015261308581613049565b9050919050565b600081519050919050565b600082825260208201905092915050565b60006130b38261308c565b6130bd8185613097565b93506130cd818560208601611e7f565b6130d681611eb2565b840191505092915050565b60006080820190506130f66000830187611fb3565b6131036020830186611fb3565b61311060408301856123e1565b818103606083015261312281846130a8565b905095945050505050565b60008151905061313c81611dd4565b92915050565b60006020828403121561315857613157611d9e565b5b60006131668482850161312d565b91505092915050565b7f4552433732313a206d696e7420746f20746865207a65726f2061646472657373600082015250565b60006131a5602083611e6e565b91506131b08261316f565b602082019050919050565b600060208201905081810360008301526131d481613198565b9050919050565b7f4552433732313a20746f6b656e20616c7265616479206d696e74656400000000600082015250565b6000613211601c83611e6e565b915061321c826131db565b602082019050919050565b6000602082019050818103600083015261324081613204565b905091905056fe416e204e465420772f20494420257320686173206265656e206d696e74656420746f2025734142434445464748494a4b4c4d4e4f505152535455565758595a6162636465666768696a6b6c6d6e6f707172737475767778797a303132333435363738392b2fa2646970667358221220f689b458b28d4612a30faed75094cb7f24fced7e2a8440f46a8a75d4aad4b49064736f6c634300080c00333c73766720786d6c6e733d27687474703a2f2f7777772e77332e6f72672f323030302f73766727207072657365727665417370656374526174696f3d27784d696e594d696e206d656574272076696577426f783d273020302033353020333530273e3c7374796c653e2e62617365207b2066696c6c3a20234638463546353b20666f6e742d66616d696c793a202747656f726769612c207365726966273b20666f6e742d73697a653a20323470783b207d3c2f7374796c653e3c726563742077696474683d273130302527206865696768743d2731303025272066696c6c3d272333464330413127202f3e3c7465787420783d273530252720793d273530252720636c6173734e616d653d27626173652720646f6d696e616e742d626173656c696e653d276d6964646c652720746578742d616e63686f723d276d6964646c65273e",
  "linkReferences": {},
  "deployedLinkReferences": {}
}